:04000000803118280B
:100008007E14803120007F08F0000B1F1328210088
:10001800111C13282000111C1328853196257008FF
:100028002000FF007E10090080311A28FC012030D2
:100038008400003085001E30863141267E10200065
:100048008231F62A2000D1004430C6004608CA0092
:1000580020004308C7004208C600C20A0319C30AA1
:1000680046088400470885000008C8004808D200F0
:1000780052080319A5292530520603194F2852089A
:10008800C600510886008701460881000130C60075
:100098004608D1072C28CF01D001CE0158284E158B
:1000A8000130C2070030C33D420884004308850080
:1000B8000008303A0319532861284208840043088D
:1000C800850000088531C6258031031C9C28200046
:1000D800CF01D0010A30F1000030F20020005008B2
:1000E800F4004F08F3008531522580317208200052
:1000F800D0007108CF00420884004308850000083A
:10010800D03EC600FF3003180030C7004608CF07AE
:100118004708D03D0130C2070030C33D4208840083
:100128004308850000088531C625803103186E28EC
:1001380020004308C7004208C600C20A0319C30AC0
:1001480046088400470885000008D200003A0319D1
:10015800A529643A0319B4280D3A0319B4282C28A0
:1001680020004A0886008701403FCC00413FCD006F
:100178000230C6004608CA07CD1FCB280330C60088
:100188004608CE04CC09CD09CC0A0319CD0AD20100
:10019800D20A053052060319F0285208C600C701D2
:1001A800C635C70D1F30460784008630473D850099
:1001B800003FC800013FC90049084D02031DE62859
:1001C80048084C02031CF0280130C6004608D20734
:1001D80005305206031DD1284F0850040319FC2886
:1001E8004E0803390319FC28FF30CF07FF30D03DF4
:1001F8005208C600C701C61BC7034708803AC80093
:100208005008803A4802031D0B294F08460203187C
:10021800182920005208C600C701C61BC703460894
:10022800CF024708D03B1B292000CF01D0014E1D2B
:1002380040294E08033903192C292D30C6005108CE
:1002480086008701460881000130C6004608D107AC
:100258004F085004031966293030C600510886003B
:100268008701460881000130C6004608D107FF30E3
:10027800CF07FF30D03D2C294F08500403195729C8
:100288002030C600510886008701460881000130E9
:10029800C6004608D107FF30CF07FF30D03D4F08D2
:1002A8005004031D44294E080339031966292D30CB
:1002B800C600510886008701460881000130C60043
:1002C8004608D1075208C6004608CB00FF30C600D2
:1002D8004608CB074B0A03192C280A30BE00003009
:1002E800BF004B08C600C701C635C70D1F304607FB
:1002F80084008630473D8500003FF100013FF20051
:100308004D08F4004C08F30084311724803172083A
:100318002000C1007108C00084317D248031200094
:100328003E08303EC8004808D2005208C6005108AE
:1003380086008701460881000130C6004608D107BB
:100348006A292000510886008701810108002000E1
:10035800D3008431AA24813174082000D2007308A4
:10036800D1007208D0007108CF00530886008701B9
:1003780001080319FD29530A860087014F08C03F69
:100388005008C13F5108C23F5208C33F530A860074
:100398008701403FC600413FC700423FC800433F76
:1003A800C9004508F4004408F3004308F200420875
:1003B800F1000030F8000030F7001F30F600403040
:1003C800F50084314B24813171082000C60772087A
:1003D800C73D7308C83D7408C93D5308053E8600EB
:1003E80087014608C03F4708C13F4808C23F49083F
:1003F800C33F5308053E86008701403FC600413F82
:10040800C700423FC800433FC900530A860087011E
:10041800403FCA00413FCB00423FCC00433FCD00A4
:1004280049084D02031D222A48084C02031D222AAE
:1004380047084B02031D222A46084A020318492A84
:100448005308053E86008701403FC600413FC7006C
:10045800423FC800433FC90052084902031D3E2AD3
:1004680051084802031D3E2A50084702031D3E2A30
:100478004F0846020318422A0130432A0030CA00B6
:100488005308860087014A08892ACE015308053E89
:1004980086008701403FC600413FC700423FC80071
:1004A800433FC90052084902031D642A5108480203
:1004B800031D642A50084702031D642A4F08460298
:1004C8000318832A530A86008701403FC600413F2C
:1004D800C700423FC800433FC90049085202031DF4
:1004E8007F2A48085102031D7F2A47085002031D2E
:1004F8007F2A46084F020318832ACE01CE0A4E08E7
:10050800C600530886008701460881005308860004
:10051800870101080800FA00E52A20005908C500EB
:100528005808C4005708C3005608C2007A08813129
:10053800AB218231003A0319AF2A0330F9007A0857
:10054800093E860087017908810020005503031DB4
:10055800F42A013008007A08093E860087018101E3
:10056800810AF42A200054080319DC2A7A08860034
:1005780087018101810A7A08093E86008701810185
:10058800F42A20005403031DF42A7A08093E860041
:10059800870181015508031DF42A01300800200055
:1005A8005408031DF42A7A08860087018101810A0C
:1005B8000230F9007A08093E86008701790881002F
:1005C800F42A7A08093E860087010108013A0319CE
:1005D800B62A033A0319912A013A0319C52AD32ADC
:1005E800003008008531FB2582318531E2258231D2
:1005F800333086311326823183319723823100309C
:10060800F600F7008331DF2382312000DA005A0830
:10061800FB008B170B17003020000D180130D40099
:10062800D5010030D9000030D8000030D700643040
:10063800D600333082318F228231003A03190F2BD2
:1006480001302000DA005A08FB070030F600F700F6
:100658007B08DA005A08F8008431D3248231AC30A0
:100668002000C2008530C3007B08DA00DB015A088D
:10067800C4005B08C5002230803126208231F50194
:1006880022302000DA005A08F600F70100308331E2
:100698004F2382310F2BF9000330F8007808F90551
:1006A8000F30F8007808F5057908A83E84008530F1
:1006B8000318013E850000087507F8007808FA005D
:1006C8007A0885316D2583318530890B692B0000C7
:1006D800770803197B2B822B76088600870101088F
:1006E8008631292683310130F8007808F607760824
:1006F80086008701010803190800702BFA017708A2
:100708007A020318080076088600870101088631F6
:10071800292683310130F8007808F6070130F800FF
:100728007808FA07832B0230F500A030F4009230E5
:10073800890B9C2BF40B9C2BF50B9C2B0032033064
:100748008531182583318531EF2583313430F40024
:10075800F230890BAD2BF40BAD2B8531EF258331AE
:10076800A0300032890BB52B8531EF25833102305B
:100778008531182583318531EF258331283085313E
:100788006D2583310C3085316D25833106308531F7
:100798006D258331013085316D2583310530F500B4
:1007A8000F30F400F130890BD72BF40BD72BF50B56
:1007B800D72B00000800853182258331003A0319C0
:1007C800DF2B8531B72583317708F9007608F800E3
:1007D8000730F936F80C890BED2B7808A038FE396C
:1007E8008531D425833176088531D4258331853107
:1007F800B72583317708F9007608F8000730F9360D
:10080800F80C890B032C7808A1388531D42583315D
:1008180000308431FA248331F8007808FA008631F0
:1008280047267A080800F701F801710872040319CD
:10083800462CF601F60AF21B2B2C0130F135F20D8D
:10084800890B222C0130F5007508F6071F2C0130A2
:10085800F735F80D890B2C2C72087402031D362C01
:1008680071087302031C3D2C7108F3027208F43BF3
:1008780077140130F236F10C890B3E2C0130F60268
:10088800031D2B2C7808F2007708F10008000030CF
:100898002000C1000030C0000030BF000030BE00A2
:1008A800711C5F2C75082000BE077608BF3D7708CD
:1008B800C03D7808C13D0130F535F60DF70DF80D4E
:1008C800890B602C0130F436F30CF20CF10C890B17
:1008D800672C7408730472047104031D542C2000DF
:1008E8004108F4004008F3003F08F2003E08F10018
:1008F800080020003E083F040319A52CFA01FA0A53
:10090800BF1B902C0130BE35BF0D890B872C0130E1
:10091800F9007908FA07842C3F084102031D962C38
:100928003E084002031C9C2C3E08C0023F08C13B05
:100938000130BF36BE0C890B9D2C0130FA02031D15
:10094800902C4108BF004008BE0008002000200885
:10095800F5002108F600F701F8010830F535F60D25
:10096800F70DF80D890BB22C1708F5040830F5358A
:10097800F60DF70DF80D890BBB2C1608F50403309E
:10098800F535F60DF70DF80D890BC42C7808F40031
:100998007708F3007608F2007508F10008002200D5
:1009A8008E12853182258431003A0319D52C853180
:1009B800B72584317708FA007608F9000730FA3647
:1009C800F90C890BE32C7908A038FE398531D42538
:1009D800843176088531D425843178088531D42549
:1009E80084318631472622008E160800F300240041
:1009F800961586313226843124001108F100F2015F
:100A08007108F4007208F5008631322684317308C3
:100A1800031D112D24009616132D24009612161668
:100A28008631322674080800F100710C2200031C7C
:100A38000C1103180C150310F10C710C031C8C110C
:100A480003188C150310F10C710C031C0C120318FD
:100A58000C160310F10C710C031C8C1203188C1665
:100A68000800220090018C018D0120308E00083092
:100A780021009000C0308C00FF308D00DF308E00E8
:100A88003E3023008D008C01083024009000FF3098
:100A98008D002100951322009D010800F501F60143
:100AA800711C5A2D7308F5077408F63D0130F335AB
:100AB800F40D890B5B2D0130F236F10C890B602D9A
:100AC80071087204031D542D7608F2007508F100B0
:100AD8000800F3007308F2000430F236890B712D18
:100AE80072088531182585318531EF2585317308E0
:100AF8008531182585318531EF2508008531B725E1
:100B08008531A0308531D4258531F4007408F5008D
:100B18008631472685317508031D942D013008005C
:100B28000030080020001110970196010130A0073D
:100B38000030A13D20302102003003192002031C9F
:100B48000800A001A10108008034C0349034D034DA
:100B580063346F3475346E3474343D342534303432
:100B68003334643400347C080319BF2D24009614F0
:100B7800863132260800FC01FC0A2400161486314E
:100B880032260800F200F1013A3072020318D22D21
:100B980030307202031CD22DF101F10A710C0800E9
:100BA800F300730824009100863132268531240031
:100BB800961616168631322671080800FC012100A7
:100BC8008E150E1624009401960197011330920099
:100BD80028309500080022008C140830890BF22D6B
:100BE80022008C108530890BF72D00000800853114
:100BF8003525853186313A26853186314D26853130
:100C080086310726080030302000980099019701A6
:100C18009601111021001114200018140800F10089
:100C28007108093E860087018101710886008701E5
:100C38008101810A0800013400340A340034643424
:100C48000034E834033410342734F40022000C1440
:100C5800740885316D2522000C1008002400141931
:100C6800322E16081F3903190800322E7030210061
:100C7800990098011A1B08003E2E6400800101317A
:100C8800890B422E003424001615FC0186313226C9
:0A0C98000800163021009700080044
:020000040001F9
:04000E00E4FFFFFF0D
:00000001FF
