:08000000803102288731FD2F39
:100B5C001630210097000800703021009900980190
:100B6C001A1B0800B62D8531C22585318531B22579
:100B7C0085318531AE2508002200900102308C00B1
:100B8C008D0107308E00083021009000F8308C0069
:100B9C00FF308D00F8308E003F3023008D00383050
:100BAC008C00083024009000FF308D00210095133C
:100BBC0022009D01080022008C140E148E140E15B8
:100BCC000C10F80104307802031808000A30F60003
:100BDC007608F0000330F7007708F10078088631CA
:100BEC00FC2685310B30F6007608F0000730F70054
:100BFC007708F10078088631FC2685310C30F60038
:100C0C007608F000F101F10A78088631FC2685316E
:100C1C000130F6007608F807E82D730872047104A9
:100C2C00700403194C2EF901F90AF31B292E01301B
:100C3C00F035F10DF20DF30D890B1E2E0130F8007D
:100C4C007808F9071B2E73087702031D372E7208DC
:100C5C007602031D372E71087502031D372E70089E
:100C6C007402031C412E7008F4027108F53B7208E3
:100C7C00F63B7308F73B0130F336F20CF10CF00C39
:100C8C00890B422E0130F902031D292E7708F3003F
:100C9C007608F2007508F1007408F00008000030C6
:100CAC00FC000030FB000030FA000030F900730843
:100CBC0072047104700403199E2EFD01FD0AF31BCE
:100CCC00732E0130F035F10DF20DF30D890B682EFA
:100CDC000130F8007808FD07652E0130F935FA0D62
:100CEC00FB0DFC0D890B742E73087702031D882EE7
:100CFC0072087602031D882E71087502031D882E5A
:100D0C0070087402031C932E7008F4027108F53BF2
:100D1C007208F63B7308F73B79140130F336F20C8A
:100D2C00F10CF00C890B942E0130FD02031D732E77
:100D3C007C08F3007B08F2007A08F1007908F000D7
:100D4C0008002000A6000930A4002408A8002808E8
:100D5C00031908000030F3000030F2000030F100FD
:100D6C000A30F0002308F7002208F6002108F500ED
:100D7C002008F40086311326863170082000A40068
:100D8C002408A7000030F3000030F2000030F1001E
:100D9C000A30F0002308F7002208F6002108F500BD
:100DAC002008F40086315526863173082000A300F4
:100DBC007208A2007108A1007008A0002808FF3E6C
:100DCC00A4002408F0002708003E84008830031893
:100DDC00013E85000008A5002508F1002608863193
:100DEC00FC26863101302000A802AD2EF300F40160
:100DFC002F2F031022008C1C0314031C082F22001D
:100E0C008C143D2F22008C103D2F031022000E1C41
:100E1C000314031C142F22000E143D2F22000E105D
:100E2C003D2F031022008E1C0314031C202F2200C4
:100E3C008E143D2F22008E103D2F031022000E1D0C
:100E4C000314031C2C2F22000E153D2F22000E1113
:100E5C003D2F7308003A0319FF2E013A03190B2F8B
:100E6C00033A0319172F013A0319232F3D2F740846
:100E7C00031D0800F501083075020318592F2200D4
:100E8C000C10F01F4C2F22000C154E2F22000C11B1
:100E9C000C140310F00D0130F2007208F507083045
:100EAC007502031C452FF501083075020318722FCB
:100EBC0022000C10F11F652F22000C15672F220049
:100ECC000C110C140310F10D0130F2007208F5072F
:100EDC0008307502031C5E2FF401F40A2F2F8531A4
:100EEC00B92587318531E125873100302000A300F9
:100EFC000030A2000330A1005130A0000030863138
:100F0C00A726873100302000A3002730A200BA307A
:100F1C00A100FF30A00001308631A72687310030B8
:100F2C002000A3000030A2002030A100DC30A00083
:100F3C0002308631A726873103302000A300D13040
:100F4C00A2008E30A1001930A00003308631A726F4
:100F5C008731CB302000AA00EC30A9008430890BFB
:100F6C00B52FA90BB52FAA0BB52F00000030200010
:100F7C00A3000030A2000030A1000030A00000301F
:100F8C008631A726873100302000A3000030A20054
:100F9C000030A1000030A00001308631A726873137
:100FAC0000302000A3000030A2000030A10000306F
:100FBC00A00002308631A726873100302000A30024
:100FCC000030A2000030A1000030A00003308631B8
:100FDC00A726873129302000AA009630A9007F303F
:100FEC00890BF62FA90BF62FAA0BF62F7B2F2000BF
:100FFC008731752F3F3406345B344F3466346D348F
:08100C007D3427347F346F347A
:020000040001F9
:04000E00E4FFFFFF0D
:00000001FF
