:040000008031132810
:100008007E14803120007F08F1000B1A8B1C0E280B
:1000180084318D2471082000FF007E100900803192
:100028001528FB012000E001E101E201E301E40100
:10003800E501E601E701E801E901EA017E10200097
:100048008131AB292000B8002730AD002D08B10060
:1000580020002608AE002508AD00A50A0319A60A47
:100068002D0884002E0885000008AF002F08B9006D
:1000780039080319A5292530390603194F283908E5
:10008800AD003808860087012D0881000130AD00D9
:100098002D08B8072C28B601B701B5015828351521
:1000A8000130A5070030A63D2508840026088500F4
:1000B8000008303A031953286128250884002608C7
:1000C800850000088531C1258031031C9C2820004B
:1000D800B601B7010A30F2000030F30020003708FB
:1000E800F5003608F4008531212580317308200099
:1000F800B7007208B60025088400260885000008A5
:10010800D03EAD00FF3003180030AE002D08B60712
:100118002E08B73D0130A5070030A63D250884000C
:100128002608850000088531C125803103186E280E
:1001380020002608AE002508AD00A50A0319A60A66
:100148002D0884002E0885000008B900003A03191C
:10015800A529643A0319B4280D3A0319B4282C28A0
:100168002000310886008701403FB300413FB400BA
:100178000230AD002D08B107B41FCB280330AD0005
:100188002D08B504B309B409B30A0319B40AB901AF
:10019800B90A053039060319F0283908AD00AE014F
:1001A800AD35AE0D0A302D07840086302E3D850012
:1001B800003FAF00013FB00030083402031DE628BD
:1001C8002F083302031CF0280130AD002D08B907B1
:1001D80005303906031DD128360837040319FC28D1
:1001E800350803390319FC28FF30B607FF30B73D3F
:1001F8003908AD00AE01AD1BAE032E08803AAF0042
:100208003708803A2F02031D0B2936082D020318E0
:10021800182920003908AD00AE01AD1BAE032D082A
:10022800B6022E08B73B1B292000B601B701351DC1
:1002380040293508033903192C292D30AD00380819
:10024800860087012D0881000130AD002D08B80710
:1002580036083704031966293030AD00380886009F
:1002680087012D0881000130AD002D08B807FF3047
:10027800B607FF30B73D2C2936083704031957292C
:100288002030AD003808860087012D088100013034
:10029800AD002D08B807FF30B607FF30B73D360868
:1002A8003704031D442935080339031966292D30FD
:1002B800AD003808860087012D0881000130AD00A7
:1002C8002D08B8073908AD002D08B200FF30AD0081
:1002D8002D08B207320A03192C280A30A000003072
:1002E800A1003208AD00AE01AD35AE0D0A302D07C4
:1002F800840086302E3D8500003FF200013FF30068
:100308003408F5003308F4008331AE2380317308D4
:100318002000A3007208A20084313E24803120000E
:100328002008303EAF002F08B9003908AD00380862
:10033800860087012D0881000130AD002D08B8071F
:100348006A29200038088600870181010800853164
:10035800E825813105302000BB000F30BA00F130AC
:10036800890BB429BA0BB429BB0BB42900308331EB
:100378007723813183312F2381318B170B1701307C
:100388002000BA003A08EA00640020006A0803194D
:10039800C82984311024813184316B2481316C3037
:1003A8002000A5008530A6006408BA00BB013A0801
:1003B800A7003B08A8006508BC00BD013C08A900CF
:1003C8003D08AA006608BE00BF013E08AB003F0812
:1003D800AC00403080312620813103302000BA0043
:1003E8003A08F6004030BB003B08F700F80100303F
:1003F8008231E4228131A3302000A5008530A60097
:100408006208BA00BB013A08A7003B08A8006108C7
:10041800BC00BD013C08A9003D08AA006008BE0058
:10042800BF013E08AB003F08AC00403080312620B9
:10043800813104302000BA003A08F6004030BB0091
:100448003B08F700F80101308231E42281312000B5
:10045800EA01C8292000B10029088331E22382314A
:100468002000AF002F08A600063085313C258231D8
:1004780020002E08AF000530AF35890B402A280828
:100488008331E223823120002F04B0003008A60017
:10049800053085313C258231200031088331E22343
:1004A80082312000AF002F08A600043085313C259A
:1004B800823120002A088331E22382310838200063
:1004C800AF002F08A600033085313C25823120007B
:1004D8002B088331E22382312000AF002F08A600C9
:1004E800023085313C25823120002C088331E223FB
:1004F80082312000AF002F08A600013085313C254D
:10050800823120002D088331E22382318038200097
:10051800AF002F08A600003085313C250800F801FF
:10052800F31F9D2AF209F309F20A0319F30AF801E5
:10053800F80AF51FA82AF409F509F40A0319F50AB7
:100548000130F6007608F806F901FA01720873041A
:100558000319D72AF701F70AF31BBC2A0130F23531
:10056800F30D890BB32A0130F6007608F707B02A95
:100578000130F935FA0D890BBD2A73087502031D80
:10058800C72A72087402031CCE2A7208F402730880
:10059800F53B79140130F336F20C890BCF2A013080
:1005A800F702031DBC2A78080319DF2AF909FA099A
:1005B800F90A0319FA0A7A08F3007908F200080020
:1005C8002000A0000330F9007908A0050F30F900D9
:1005D8007908F6052008683E840085300318013E36
:1005E800850000087607F9007908A10021088531FF
:1005F8007D2582318530890BFF2A00007808031990
:10060800112B182B770886008701010886311426DC
:1006180082310130F9007908F707770886008701E9
:10062800010803190800062B2000A10178082102FF
:100638000318080077088600870101088631142608
:1006480082310130F9007908F7070130F90079089B
:100658002000A1071A2B0230F600A030F5009230D6
:10066800890B342BF50B342BF60B342B003203306B
:100678008431CA2483318531DC2583313430F50057
:10068800F230890B452BF50B452B8531DC25833161
:10069800A0300032890B4D2B8531DC2583310230A7
:1006A8008431CA2483318531DC2583312830853172
:1006B8007D2583310C3085317D25833106308531A8
:1006C8007D258331013085317D2583310530F60064
:1006D8000F30F500F130890B6F2BF50B6F2BF60BF4
:1006E8006F2B000008002000B4008531CF2583312E
:1006F80040302000B2003208A600073085313C2582
:10070800833120003408B2003208A6000830853151
:100718003C25833103308431AC24833120392000D7
:10072800B2003208E3002030630603190800A8016C
:10073800A80A1030B2003208A9000630B300330806
:10074800AA00AB01AC01AD01AE01AE0A01308231A5
:100758002E220800F701F801720873040319DD2B33
:10076800F901F90AF31BC22B0130F235F30D890B9D
:10077800B92B0130F6007608F907B62B0130F735AA
:10078800F80D890BC32B73087502031DCD2B720856
:100798007402031CD42B7208F4027308F53B771417
:1007A8000130F336F20C890BD52B0130F902031D09
:1007B800C22B7808F3007708F20008002000A40094
:1007C8000A30F2000030F3002408A000A10120083C
:1007D800F4002108F5008231932283317208200049
:1007E800A2002208A5000A30A0002008F20025086F
:1007F800853192258331FF3A013E20002407A1006C
:100808002108A3002508A0000330A035FF3E031DE2
:10081800092C20352304080006308431AC248431A7
:100828008531042584312000A0002008E600053029
:100838008431AC2484311F3985310425843120006A
:10084800A0002008E50004308431AC2484318531CF
:10085800042584312000A0002008E40003308431FE
:10086800AC2484310739853104252000A0002008F4
:10087800E30008002000200821040319662CA401C5
:10088800A40AA11B512C0130A035A10D890B482CBD
:100898000130FA007A08A407452C21082302031D19
:1008A800572C20082202031C5D2C2008A2022108D4
:1008B800A33B0130A136A00C890B5E2C0130A402A9
:1008C800031D512C2308A1002208A00008000230B3
:1008D8008431AC2484318531042584312000A00082
:1008E8002008E20001308431AC24843185310425AC
:1008F80084312000A0002008E10000308431AC24BD
:1009080084317F39853104252000A0002008E000CB
:10091800080003102100151F0314031C962C210046
:100928001517982C21001513031022008D1C031491
:10093800031CA12C22008D14A32C22008D10013041
:10094800F00070082000EA008B108531FF250800B0
:10095800F6008531B2258431DE3086312426843193
:1009680076088631242684318531B2258431DF30FA
:100978008631242684310030853152258431F500B2
:100988007508F7008631382677080800F200720CDF
:100998002200031C0E1103180E150310F20C720C22
:1009A800031C8E1203188E160310F20C720C031C13
:1009B8000E1303180E170310F20C720C031C8E137F
:1009C80003188E170800220090018C018D018E01FA
:1009D800083021009000FF308C00FD308D00183069
:1009E8008E003C3023008D003F308C0008302400FE
:1009F8009000FD308D002100951322009D01080014
:100A0800FA007A08F6007608F9000A30F600760847
:100A1800F2007908F7000430F736890B102D7708B3
:100A280085319225F8007808FA0079080F397A0795
:100A3800F6007608FA007A080800F601F701721C39
:100A4800292D7408F6077508F73D0130F435F50DC2
:100A5800890B2A2D0130F336F20C890B2F2D7208E1
:100A68007304031D232D7708F3007608F2000800AD
:100A78002000A7008531B2258531DE308631242655
:100A88008531200027088631242685312000260854
:100A9800863124268531863138260800F300240063
:100AA800961500002400141C562D1108F200720837
:100AB800F40073080319642D86313E268531662DAE
:100AC80086312B26740808008034C0349034D03422
:100AD80025343034323464342E34253430343234CE
:100AE80064342E343234303425343034323464347F
:100AF8000034F4007408F3000430F336890B812DB8
:100B080073088431CA2485318531DC258531740820
:100B18008431CA2485318531DC250800F500F401CB
:100B2800751C9A2D7208F3007308F4070310F20D70
:100B38000310F50C7508031D942D7408080025345E
:100B48003034323464343A34253430343234643412
:100B58003A34253430343234643400347B08031991
:100B6800BA2D24009614961C0800B72D24001614DC
:100B78001618BC2DFB01FB0A0800F300F2013A30FD
:100B880073020318CD2D30307302031CCD2DF201F2
:100B9800F20A720C0800FB0121008E150E162400C3
:100BA80094019601970113309200283095000800AF
:100BB80022008E140830890BDF2D22008E1085301C
:100BC800890BE42D000008008431E7248531863143
:100BD8001D2685318631442685318531F425080066
:100BE8008B10210015134830F2000630F3008631CF
:100BF80032260B160800200068086904031908004B
:100C080069088A0068080A0086310800013400343F
:100C18000A34003464340034E8340334103427349C
:100C2800F50022000E14750885317D2522000E106E
:100C3800080070302100990098011A1B0800212E25
:100C4800F200720824009100141C0800282E2400C9
:100C580096161616161A2E2E9612080073082000DD
:100C6800E9007208E80008002400161516193A2E43
:100C7800FB010800240096121616161E0800412EC5
:0A0C88001630210097000800080054
:020000040001F9
:04000E00FCFFFFFFF5
:00000001FF
