:08000000803102288731E82F4E
:100CA2001630210097000800013401340134013468
:100CB200FF3020009B009A01911007309C00080031
:100CC2000C3026009A00980199013F3025009E05BC
:100CD20008000C3026009E009C019D01FC3025007E
:100CE2009F050800703021009900980122009601AA
:100CF20021001A1B0800792EF501F601F801F80A05
:100D0200780C2200031C8C1203188C160030F000A1
:100D1200F1008731002708002000A001A101F7019E
:100D2200F70A770C2200031C8D1003188D14003073
:100D3200F000F10087311727080087312E2786310E
:100D42008631732686318631512686318631612677
:100D5200863186316A26863186315926080000306E
:100D620020008D190130F1007B0871060319C22E93
:100D72007108F0007008FB007108031DC22E0130DB
:100D8200080000300800003020008D1A0130F10008
:100D9200790871060319D62E7108F0007008F9005F
:100DA2007108031DD62E0130080000300800003003
:100DB20020000D190130F1007C0871060319EA2E9A
:100DC2007108F0007008FC007108031DEA2E013062
:100DD200080000300800003020000D1A0130F10038
:100DE2007A0871060319FE2E7108F0007008FA00E5
:100DF2007108031DFE2E0130080000300800710842
:100E0200F3007008F200F336F20CF336F20C7208BB
:100E12002600980070080339F2000430F235890B7D
:100E22000F2F1A08CF3972049A0008007108F300D4
:100E32007008F200F336F20CF336F20C7208260058
:100E42009C0070080339F2000430F235890B262F1A
:100E52001E08CF3972049E000800220090018C0106
:100E62008D018E01083021009000CF308C00FC30C3
:100E72008D00FF308E00023023008D002F308C0059
:100E8200240090013C308D002100951322009D0129
:100E9200080086319E26873186317D26873186314C
:100EA2008D26873164008631D8268731003A0319AE
:100EB200712F78080319712FFF30F5070030F63DC6
:100EC20004307602003003197502031C6A2FF50103
:100ED200F6017608F1007508F000873100278731A6
:100EE2008631B0268731003A03199B2F0030F0007B
:100EF200F1008731002787310130F4007408F807C8
:100F0200033078020318F8017808031D8C2F003093
:100F1200F000F100982F7803031D922F22008C1607
:100F2200942F22008C127608F1007508F0008731A8
:100F3200002787318631EC268731003A0319B92F11
:100F420077080319B92FFF302000A0070030A13D18
:100F520004302102003003192002031CB22FA00129
:100F6200A1012108F1002008F000873117278731FD
:100F72008631C4268731003A0319532F0030F0001E
:100F8200F1008731172787310130F4007408F70721
:100F9200033077020318F7017708031DD72F0030BB
:100FA200F000F100873117278731532F7703031D94
:100FB200DD2F22008D14DF2F22008D10200021084A
:100FC200F1002008F000873117278731532F86312F
:100FD20055268731F900863156268731FA00863147
:100FE20057268731FB0086315826FC00F501F601B1
:0E0FF200F701F801A001A101200087314A2F6C
:020000040001F9
:04000E00FCFFFFFFF5
:00000001FF
