:08000000803102288731F22F44
:100D16001630210097000800FF3020009B009A0142
:100D2600911007309C0008000C3026009A009801AC
:100D360099013F3025009E0508000C3026009E00D4
:100D46009C019D01FC3025009F05080070302100A4
:100D5600990098012200960121001A1B0800AF2E67
:100D6600F001F101F301730C2200031C8D1003182E
:100D76008D140030F800F9008631F62608002000B0
:100D8600A001A101F201720C2200031C8C120318AF
:100D96008C160030F800F90087310D270800003066
:100DA60020000E180130F70000308E180130F600D2
:100DB60000300E190130F50000308E190130F400B4
:100DC600080087313E2786318631A926863186314D
:100DD6008B2686318631972686318631A026863146
:100DE60086318F2608007908FB007808FA00FB3662
:100DF600FA0CFB36FA0C7A082600980078080339B4
:100E0600FA000430FA35890B052F1A08CF397A040F
:100E16009A0008007908FB007808FA00FB36FA0CFD
:100E2600FB36FA0C7A0826009C0078080339FA008B
:100E36000430FA35890B1C2F1E08CF397A049E0020
:100E46000800FA007A08F9007908FB00780886009D
:100E5600870101087B0603193C2F7B08F9007808F7
:100E660086008701790881007B08031D3C2F01302D
:100E7600080000300800220090018C018D018E01CF
:100E8600083021009000CF308C00FC308D00FF3000
:100E96008E003E3023008D002F308C002400900100
:100EA6003C308D002100951722009D0108008631F7
:100EB600E42687318631B32687318631C2268731CB
:100EC6008631D226873164007730FC007C08F80032
:100ED60020000E080139873124278731003A03198B
:100EE600882FFF30F0070030F13D043071020030EA
:100EF60003197002031C812FF001F1017108F9003A
:100F06007008F8008631F62687317630FC007C08BA
:100F1600F80020000E0C0139873124278731003A6A
:100F26000319A92F0030F800F9008631F62687311B
:100F3600F309730C2200031C8D1003188D1471081D
:100F4600F9007008F8008631F62687317530FC0006
:100F56007C08F80020000E0C890C01398731242703
:100F66008731003A0319CC2FFF302000A00700304C
:100F7600A13D04302102003003192002031CC52FB5
:100F8600A001A1012108F9002008F80087310D27EA
:100F960087317430FC007C08F80020000E0CFD0040
:100FA600FD0C7D0C0139873124278731003A03195E
:100FB600662F0030F800F90087310D278731F209D6
:100FC600720C2200031C8C1203188C1620002108B8
:100FD600F9002008F80087310D278731662FF001C8
:100FE600F101F201F301F401F501F601F701200028
:0A0FF600A001A101200087315A2F4D
:020000040001F9
:04000E00FCFFFFFFF5
:00000001FF
