:08000000803102288731EE2F48
:100E420016302100970008000134013401340134C6
:100E520070302100990098011A1B08002D2F87314C
:100E62008927873187312927873187312127080050
:100E7200003020000E1A0130F500730875060319C0
:100E82004B2F7508F4007408F300730803194B2FF5
:100E92000130080000300800003020008E1A0130B6
:100EA200F5007208750603195F2F7508F4007408BF
:100EB200F200720803195F2F0130080000300800A9
:100EC200003020000E1B0130F50071087506031971
:100ED200732F7508F4007408F10071080319732F59
:100EE2000130080000300800003020008E1B013065
:100EF200F500700875060319872F7508F400740849
:100F0200F00070080319872F013008000030080034
:100F1200220090018C018D018E0108302100900089
:100F2200FF308C00FF308D00F0308E003F30230008
:100F32008D003F308C00083024009000FF308D007F
:100F42002100951322009D01080087313027873147
:100F5200873139278731003A0319BA2F031022004B
:100F62000E1C0314031CB82F22000E14BA2F2200E9
:100F72000E1087314D278731003A0319CB2F03100A
:100F820022008E1C0314031CC92F22008E14CB2FA7
:100F920022008E10873161278731003A0319DC2F36
:100FA200031022000E1D0314031CDA2F22000E155B
:100FB200DC2F22000E11873175278731003A031981
:100FC200A92F031022008E1D0314031CEB2F2200F5
:100FD2008E15A92F22008E11A92F8731252787313F
:100FE200F000873126278731F100873127278731A3
:0E0FF200F20087312827F30020008731A62F58
:020000040001F9
:04000E00E4FFFFDF2D
:00000001FF
