:0400000080312428FF
:100008007E14803120007F08F1000B1F1528210085
:10001800911E15282000911E15288131EE2180316E
:100028001F280B1F1F282100111C1F282000111C2E
:100038001F2882311C2271082000FF007E10090051
:1000480080312628F601F701F8013D3084000030A0
:1000580085000B3082315B228031A0308400003073
:100068008500403082315B227E1020008131A92931
:100078002000BC0081314121803175082000BB007F
:100088007408BA007308B9007208B80003302E0665
:10009800031D54283C08860087018101810A3C29F8
:1000A8003C088600870101080319AF282E08031DA4
:1000B80065280330AA35AB0DAC0DAD0D890B5E2854
:1000C8008C282E03031D70280030A3000030A200E6
:1000D8001F30A100403077280030A3007A30A200FA
:1000E8001230A1000030A0002D08A7002C08A6009F
:1000F8002B08A5002A08A40081317921803120002D
:100108002308AD002208AC002108AB002008AA0093
:100118003C0A860087013808C03F3908C13F3A08C1
:10012800C23F3B08C33F38082A07AF0039082B3DB8
:10013800B0003A082C3DB1003B082D3DB2003C0808
:10014800053E860087012F08C03F3008C13F3108AF
:10015800C23F3208C33F3C08053E86008701403F46
:10016800AF00413FB000423FB100433FB2003C0AFC
:1001780086008701403FB300413FB400423FB500CD
:10018800433FB60032083602031DD4283108350231
:10019800031DD42830083402031DD4282F08330245
:1001A8000318FB283C08053E86008701403FAF0046
:1001B800413FB000423FB100433FB2003B0832022A
:1001C800031DF0283A083102031DF02839083002CF
:1001D800031DF02838082F020318F4280130F528E9
:1001E8000030B3003C088600870133083B29B7017B
:1001F8003C08053E86008701403FAF00413FB00004
:10020800423FB100433FB2003B083202031D1629AA
:100218003A083102031D162939083002031D162930
:1002280038082F02031835293C0A86008701403F09
:10023800AF00413FB000423FB100433FB200320837
:100248003B02031D312931083A02031D31293008C8
:100258003902031D31292F08380203183529B7013F
:10026800B70A3708AF003C08860087012F088100CD
:100278003C08860087010108080020003D08A4000A
:100288003E08A500A601A7011330A435A50DA60DAB
:10029800A70D890B49291708A000A1012008A8006B
:1002A8002108A9000830A835A90D890B5729160877
:1002B800A000A1012008A8042108A9042808A0007A
:1002C8002908A100A201A3012008A4042108A5046B
:1002D8002208A6042308A7042708F5002608F40026
:1002E8002508F3002408F20008000030F50000306B
:1002F800F4000030F3000030F2002000201C8C29AC
:100308002408F2072508F33D2608F43D2708F53DA3
:100318000130A435A50DA60DA70D890B8D29013037
:10032800A336A20CA10CA00C890B94292308220443
:1003380021042004031D81297508A3007408A20064
:100348007308A1007208A000080082312F228131B1
:100358002000BF01BF0A8B170B1764000030200074
:10036800AD000030AC000030AB006430AA00AE0134
:10037800AE0A3F3080313C208131003A0319B1295F
:10038800031022008E1C0314031CCD2922008E1496
:10039800B12922008E10B129220090018C018D0113
:1003A80004308E00083021009000FF308C00FF30B0
:1003B8008D0091308E003F3023008D003F308C003F
:1003C800083024009000FF308D0021009513220092
:1003D8009D01080023009D1CF3291D121D161908F4
:1003E800F0007808A03E860087017008810001307F
:1003F800F0007008F807403078020318F80101305F
:10040800F0007008F6070800210091121112083058
:1004180023009F0090309D0024309E0040309B00B8
:1004280003309C00F801F701F6012100911608003D
:1004380020001110031022008E1C0314031C272A0D
:1004480022008E14292A22008E1001302000BD07B8
:100458000030BE3D08008131D021823182315422E2
:10046800823182316122823182314D228231823160
:100478004122823182310822080030302000980061
:1004880099019701960111102100111420001814E8
:1004980008004030240094002030950092010800A4
:1004A80070302100990098011A1B0800582A64002E
:1004B80080010131890B5C2A003416302100970035
:0204C80008002A
:020000040001F9
:04000E00FCFFFFDF15
:00000001FF
