:08000000803102288631422EF6
:100C7800640080010131890B3D2E0034203084004E
:100C880000308500313086313C26863140014C2EBB
:100C98006C2786314001FF30CA01CA0AC301C30A62
:100CA800BC01BC0AB501B50AAE01AE0AA701A70A84
:100CB8006827863164009630F9004A30FA01FB0152
:100CC800AC268631003A03196B2E40309806FA306C
:100CD800F9004330FA01FB01AC268631003A0319CA
:100CE800772E01309A062630F9000230FA003C309F
:100CF800FB01AC268631003A0319842E8030980611
:100D0800EE30F9000230FA003530FB01AC268631AE
:100D1800003A0319912E02309C06B630F9000330D0
:100D2800FA002E30FB01AC268631003A03199E2EBC
:100D380001309B06DC30F9000530FA002730FB0152
:100D4800AC268631003A03195E2E04309B065E2ECF
:100D58004001DB00A227863170084001D8007108E5
:100D6800D9007208DA005B088600870101080319B8
:100D7800022F5B0A86005808C03F5908C13F5A082D
:100D8800C23F5B0A8600F92786317908F0007A08A5
:100D9800F1007B08F2001E30F300F401F501C227D0
:100DA80086317008D1077108D23D7208D33D5B08BF
:100DB800043E860087015108C03F5208C13F5308CE
:100DC800C23F5B08043E8600F9278631083053028B
:100DD800031DF42E00305202031DF42E0030510280
:100DE8005B08031C032F043E860000308701810244
:100DF8004131813B08304131813B7E315B08043E03
:100E080086008701F92786315B0A8600403FD400B7
:100E1800413FD500423FD60053085602031D1A2F02
:100E280052085502031D1A2F510854020318392F6E
:100E38005B08860087015B08043E84008501003F4B
:100E4800D100013FD200023FD3005A085302031DCC
:100E5800332F59085202031D332F58085102031823
:100E6800372F0130622F0030622FD7015B08043E14
:100E780086008701F92786315A085302031D4A2F35
:100E880059085202031D4A2F5808510203185E2FB1
:100E98005B0A86008701F92786315A02031D5A2FFB
:100EA80052085902031D5A2F5108580203185E2F81
:100EB800D701D70A5B0886008701570881005B08BD
:100EC8008600870101080800F00052018F00080021
:100ED8007D27863173278631DF278631E52F6030FD
:100EE80051018D008F01910106309300900192010C
:100EF80008009C019B01980199019A010D30960008
:100F08003B309200FF309300FE309400FA30950099
:100F1800FE307E01CE00FF30C300FA30D900053024
:100F2800E4003F30B800DA01E501C401B901CF019E
:100F3800E601BA01C501D001DB01080044010D0832
:100F4800F600F701F8017708F8007608F700F601CF
:100F58000C08F300F401F501F6047408F7047508A9
:100F6800F8040330F635F70DF80D890BB62F76081F
:100F7800F0007708F1007808F2000800F601F701A0
:100F8800F801701CCD2F7308F6077408F73D750833
:100F9800F83DF335F40DF50DF236F10CF00C72084E
:100FA80071047004031DC52F7608F0007708F1005E
:100FB8007808F2000800A03052018E0006308F0039
:100FC8000800303044018E008F01900106309100F6
:100FD8008D018C010D08FD00FC010C08FC044E017C
:100FE8001010F62F44010E140800403FD100413F75
:080FF800D200423FD3000800C3
:020000040001F9
:0A000E00EC3FFF3FFF07FF1FFF3F1D
:00000001FF
