:0400000080312428FF
:100008007E14803120007F08F1000B1F1528210085
:10001800111E15282000111E152881316A218031F2
:100028001F280B1F1F282100911E1F282000911E2A
:100038001F288131852171082000FF007E100900EA
:1000480080312628F701F801F901FA01FB01203077
:100058008400003085002130823101227E1020008A
:10006800803136288131EE2180318B170B17200023
:10007800D401D301400803195F2805302000C200CD
:100088000F30C100F130890B4728C10B4728C20B3C
:1000980047288131312180312000C1005408433E76
:1000A80086008701410881000130C1004108D4075A
:1000B800D301D30A3E28530803193B280730F2001E
:1000C8008230F3000430C1004108F400433080312D
:1000D800F3208031003A03198428031022000E1CF3
:1000E8000314031C7A2822000E147C2822000E1008
:1000F800C430F4008130F5008131A02180313B28E3
:100108000C30F2008230F30004302000C1004108B6
:10011800F40043308031F3208031003A0319A728D6
:10012800031022008E1C0314031C9D2822008E1429
:100138009F2822008E10D230F4008130F5008131E2
:10014800A02180313B281130F2008230F3000430C6
:100158002000C1004108F40043308031F320803191
:10016800003A0319CA28031022000E1D0314031CA9
:10017800C02822000E15C22822000E11E030F4001B
:100188008130F5008131A02180313B28B430F40062
:100198008130F5008131A02180313B28F3007908B6
:1001A8000319D3282100111ADD28730823009A00A7
:1001B800F02811127308F2007B08303E8600870190
:1001C800720881000130F2007208FB0710307B02D0
:1001D8000318FB010130F902210011160800F6008E
:1001E8000130F402740A0319112972088400730893
:1001F80085000008F5007608860087010108750665
:1002080003190829003008000130F5007508F607C1
:100218000130F2070030F33DF428013008002200D5
:1002280090018C018D0140308E0008302100900033
:10023800FF308C00FF308D00B8308E003F30230037
:100248008D003F308C00083024009000FF308D0076
:100258002100951322009D010800F30120004008A9
:10026800031932297708203E860087010108F20029
:100278007208F3000130F2007208F70710307702B5
:100288000318F7012100911201302000C00221005B
:1002980091167308080021009112111208302300EA
:1002A8009F0090309D0024309E0040309B0003301A
:1002B8009C00FB01FA011030F2007208F900F80105
:1002C800F7012000C00121009116080010307902C2
:1002D800031882297A08303E860087010108230026
:1002E8009A000130F0007008FA0710307A020318FB
:1002F800FA010130F0007008F90708002100111216
:10030800080023009D1C8A291D121D161908F000DB
:100318007808203E86008701700881000130F000CF
:100328007008F807103078020318F8010130F0005F
:1003380070082000C007080074088400750885004C
:100348001200031908007408840075088500000865
:100358008031D22081310130F4070030F53DA029E9
:100368004534723472346F347234203463346F34E9
:100378006D346D3461346E3464340D340A340034B1
:100388004C34653464343134203474346F34673415
:1003980067346C3465340D340A3400344C346534B5
:1003A80064343234203474346F34673467346C34D2
:1003B80065340D340A3400344C34653464343334D1
:1003C800203474346F34673467346C3465340D34D6
:1003D8000A3400348131132181318131FA2181318C
:1003E80082311622813181314F210800703021007D
:1003F800990098011A1B0800FE2964008001013148
:10040800890B022A00344C344534443431340034E6
:100418004C3445344434323400344C344534443458
:0C04280033340034163021009700080027
:020000040001F9
:04000E00E4FFFFDF2D
:00000001FF
