:1000000080311028003008007E14803120007F08E5
:10001000ED008E31F32620006D08FF007E100900F0
:1000200080311228E230840089308500203086003B
:10003000013087000F308931A021EE01EF0121004E
:10004000C401C501C601C701C801C9012200AF0131
:10005000B001B101B201B301B401B501B601B701FC
:100060007E1020008C31DD2C2000C70122002A08E0
:100070002000BD003D08DA005A0A860087010630DC
:100080000106031D04295A088600870180300106F5
:10009000031D04295A08023E86008701403FBD0027
:1000A000413FBE003E08BF003F08D7005A08860007
:1000B0008701423FD8005703031D7928C130B000A3
:1000C0009030B100C1308400903085000008BD0040
:1000D000BE013D08B2003E08B3005A08063E860045
:1000E0008701403FB400413FB5008D31D8258031B4
:1000F000512B023020005706031DAE285808031963
:1001000085288931B6218031512B200058352D3E6C
:10011000860001308700403FCA00413FCB004B08BA
:10012000B1004A08B0004B08BE004A08BD000230CA
:100130003D0784003E0803183E0A8500003FB200D8
:10014000013FB3005A08063E86008701403FB400D5
:10015000413FB5008D31D8258031512B033020002F
:100160005706031DDB285530BD003D08F000580838
:100170008B315823803171082000CD007008CC00ED
:10018000CD1FC6288931B6218031512B2000560859
:10019000B1005508B0004D08B3004C08B2005A0831
:1001A000063E86008701403FB400413FB5008D31D7
:1001B000D8258031512B49302000BD003D08F0008A
:1001C0005A0889319B21803171082000CF007008C6
:1001D000CE00CF1FEF288931B6218031512B20006E
:1001E0004908B0000030B1004F08B3004E08B2001B
:1001F0005A08063E86008701403FB400413FB500E3
:100200008D31D8258031512B20005A0A8600870174
:1002100005300106031D1A292200B401B40A20008A
:100220005A0886008701423F2200B3008931A62187
:100230008031512B20005A0A8600870109300106BF
:10024000031D35295A0886008701423FD000500817
:100250008931832180318931A621803120005008E5
:10026000BD003D082100C900512B20005A0A86001C
:10027000870108300106031D5129C930B000003044
:10028000B1000130B2000030B3005A08063E8600CB
:100290008701403FB400413FB5008D31D825803102
:1002A000512B20005A0A860087010108031DE0290E
:1002B0005A088600870101081F39003A031D7C296E
:1002C00089319021803171082000C1007008C00080
:1002D0004030B0000030B1000230B2000030B30056
:1002E0005A08063E86008701403FB400413FB500F2
:1002F0008D31D8258031512B20005A088600870186
:1003000001081F39023A031DDC295A08043E860001
:10031000870101080F39BD003D08D10002305102AC
:100320000318D8290530BD003D08F00051088A3176
:1003300021228031043E203E8600013087000108E2
:100340002000BE003E08D2005A08043E8600870105
:10035000403FBD00413FBE00BD1BB12952080139DD
:10036000B32952080239BD00BE013D08C5003E0850
:10037000C600450846040319BF290130C0290030D2
:10038000BD003D08C200C3014230B0000030B100E2
:100390000230B2000030B3005A08063E86008701E2
:1003A000403FB400413FB5008D31D8258031512BFD
:1003B0008931B6218031512B8931B6218031512BC1
:1003C00020005A0A860087010B300106031D032A0C
:1003D0005A0886008701423FF0005A08043E860012
:1003E000870101088031022080312000BD003D08D6
:1003F000C400C41FFF298931B6218031512B8931B6
:10040000A6218031512B20005A0A860087010A302C
:100410000106031D322A5A08043E8600870101089E
:1004200089318E2180312000BD003D08D300D31FCB
:100430001D2A8931B6218031512B53302000B00064
:100440000030B1000130B2000030B3005A08063E5F
:1004500086008701403FB400413FB5008D31D8256B
:100460008031512B20005A0A8600870101030319AD
:10047000402A5A0A8600870103300106031D4F2BCC
:10048000C801C80A5A088600870101081F39023AC4
:10049000031D442B5A08023E860087011600010402
:1004A000031D442B5A08043E8600870101080F39BA
:1004B000BD003D08D9005A08043E860087010108A6
:1004C0008039BD003D08D400023059020318442B86
:1004D0005A0A8600870103300106031D9B2A54082F
:1004E0000319862A0530BD003D08F00059088A31FD
:1004F00021228031043E203E860001308700811495
:10050000200059088B31292380312C2B0530200005
:10051000BD003D08F00059088A3121228031043E97
:10052000203E8600013087000114200059088731E1
:10053000DB2780312C2B200054080319DE2A0530DC
:10054000BD003D08F00059088A3121228031033E68
:10055000203E86000130870001082000BE0059358A
:10056000BF000130BF35FF3E031DB22A3F35053EB7
:10057000203E860087013E0881005935BD000130CC
:10058000BD35FF3E031DC02A3D35043E203E86009A
:1005900087018101F730BD000530BE003E08F00044
:1005A00059088A3121228031043E203E86000130E4
:1005B000870020003D088105FD301B2B0530BD0064
:1005C0003D08F00059088A3121228031023E203E48
:1005D00086000130870001082000BE005935BF00A9
:1005E0000130BF35FF3E031DF12A3F35013E203E5D
:1005F000860087013E0881008830BD005935BE0065
:100600000130BE35FF3E031D012B3E35203E8600E6
:1006100087013D0881000530BD003D08F000590804
:100620008A3121228031043E203E8600013087003D
:100630000115FE302000BD000530BE003E08F00070
:1006400059088A3121228031043E203E8600013043
:10065000870020003D08810520005A0A8600870196
:1006600003300106031D362B0130372B0030BD004F
:100670003D08F0005A08043E8600870101088931D0
:10068000822180312000C8014808031D4B2B89318D
:10069000A6218031512B8931B6218031512BC701E0
:1006A000C7032000470808002000E5006508860011
:1006B0008701443FE400650A860087010630010691
:1006C000031DCC2B65088600870181300106031DC0
:1006D000CC2B6508023E86008701403FC400413FA5
:1006E000C5004508C6004608DA00FF30E200FF30CA
:1006F000E30021305A06031D8A2B6030C4004408F1
:10070000F00064088A310122833171082000E3007F
:1007100070089A2B22305A06031D9B2B6030C400B0
:100720004408F00064088931D62183317108200023
:10073000E3007008E200E31F9F2BFF30080065080C
:10074000063E86008701403FC400413FC500450882
:100750006302031DAD2B44086202031CB82B65081D
:10076000063E86008701403FD400413FD500BC2BA8
:100770006308D5006208D4006108BE006008BD00AF
:100780005508C0005408BF000030C100C200C301BA
:100790008A31AF2200300800FF302000DE00FF3039
:1007A000DF00650A860087010103031D412C6508EF
:1007B00086008701A1300106031D412C6508023E19
:1007C00086008701403FC400413FC5004508C60080
:1007D0004608C900650886008701423FCA004908EB
:1007E000C4004408F0004A08C5004508F1005C3028
:1007F000C6004608F2005830C7004708F3005D30D5
:10080000C8004808F40064088A31672283317108FF
:100810002000DF007008DE00DF1F102CFF30080012
:100820006508063E86008701403FC400413FC50081
:1008300045085F02031D1E2C44085E02031C292C80
:100840006508063E86008701403FD600413FD7003D
:100850002D2C5F08D7005E08D6005C08BD00013073
:10086000BE005708C0005608BF005908C20058080B
:10087000C1005D08C4004408C3008A31AF220030C3
:1008800008002000650A8600870109300106031D63
:10089000722C65088600870121300106031D722C29
:1008A0006508023E86008701403FC400413FC50005
:1008B0004508C6004608CB00650886008701423F10
:1008C000CC004B08C4004408F0004C08C5004508A3
:1008D000F100640889318C212000C6004608CD0053
:1008E0004D080800650A8600870102300106031DD5
:1008F000A12C650886008701A1300106031DA12CEB
:10090000650886008701423FCE004E08C4004408B7
:10091000F00064088931842183312000C500450836
:10092000CF004F30BD000030BE000130BF000030AE
:10093000C0000030C100C200C3018A31AF220030C4
:1009400008002000650A860087010A300106031DA1
:10095000D22C65088600870121300106031DD22CA8
:100960006508023E86008701403FC400413FC50044
:100970004508C6004608D000650886008701423F4A
:10098000D1005108C4004408F0005008C5004508D3
:10099000F1006408893188212000C6004608D20091
:1009A00052080800650A8600870103300106031D0E
:1009B000FC2C650886008701A1300106031DFC2C74
:1009C00064088931862183312000C4004408DB009B
:1009D000DB1FEC2CFF3008005B30BD000030BE0098
:1009E0000130BF000030C0000030C100C200C301B0
:1009F0008A31AF22003008002000650A8600870196
:100A00000B300106031D192D650886008701213072
:100A10000106031D192D650886008701423FF0007D
:100A2000640889318A212000C4004408D300530897
:100A30000800FF3008003D0011109110920197014D
:100A40008E151116111590119011901190119001A1
:100A5000921592161214121798302100A5000E302C
:100A6000A6000030A700A8001030A9000030AA009E
:100A70008A31962285313D00181698111815981460
:100A800018102100C101C10A023041020318732D60
:100A90004108983EBC00BD010E30BD3D3C08BF0082
:100AA0003D08C0003F0886004008870001163F0847
:100AB00086004008870081153F08860040088700AF
:100AC00001153F0886004008870081143F08860012
:100AD0004008870001100130BC003C08C10702300B
:100AE0004102031C482D3D0096012200B401210063
:100AF000C9012200AC012100C101023041020318EA
:100B00009B2D0430BC000530BD003D08A500410808
:100B10008A3143228531043E203E86000130870021
:100B200021003C0881000130BC003C08C1070230B4
:100B30004102031C812D2030A5000030A6000030AA
:100B4000A700A8001030A9000030AA008A31962220
:100B5000853122002A088C312F24853121002C0870
:100B60002000A30021002B082000A2000830A100D3
:100B700080302100BC003C082000A00022002B088F
:100B80008C312F24853121002C082000A700210062
:100B90002B082000A60008302100BC003C082000E3
:100BA000A500A4012100C101C10A023041020318BD
:100BB0007C2E0530BC003C08A50041088A31432248
:100BC0008531203E86000130870001088C312F24BA
:100BD000853121004135BD000130BD35FF3E031D8B
:100BE000ED2D3D35023E203E860087012B08C03F9B
:100BF0002C08C13F0530BC003C08A50041088A31E3
:100C000043228531023E203E8600013087000108E4
:100C10002100BD004135BE000130BE35FF3E031D41
:100C20000D2E3E35013E203E860087013D088100A5
:100C30008830BC004135BD000130BD35FF3E031D8D
:100C40001D2E3D35203E860087013C088100053081
:100C5000BC003C08A50041088A3143228531013E91
:100C6000203E86000130870001088C312F24853119
:100C700021004135BD000130BD35FF3E031D3C2E36
:100C80003D35063E203E860087012B08C03F2C08DC
:100C9000C13F0530BC003C08A50041088A31432211
:100CA0008531033E203E8600013087000108210087
:100CB000BD004135BE000130BE35FF3E031D5C2E38
:100CC0003E35053E203E860087013D0881004135C6
:100CD000BC000130BC35FF3E031D6A2E3C35043E8E
:100CE000203E8600870181010130BC003C08C1071D
:100CF00002304102031CD92D8931CB21210012156C
:100D000008003D0011109110920197018E151116E7
:100D10001115901190119011901190019215921649
:100D2000121412179830F0000E30F1000030F2006B
:100D3000F3001030F4000030F5008A317E22863155
:100D40003D00181698111815981418102000BF01AE
:100D5000BF0A02303F020318D82E3F08983EBA005F
:100D6000BB010E30BB3D3A08BD003B08BE003D084C
:100D700086003E08870001163D0886003E08870071
:100D800081153D0886003E08870001153D08860054
:100D90003E08870081143D0886003E088700011048
:100DA0000130BA003A08BF0702303F02031CAD2EE3
:100DB0003D0096012200B4012100C9012200AC01CE
:100DC0002000BF0102303F020318002F0430BA0098
:100DD0000530BB003B08F0003F088A3121228631F4
:100DE000043E203E86000130870020003A08810042
:100DF0000130BA003A08BF0702303F02031CE62E5A
:100E00002030F0000030F1000030F200F30010302C
:100E1000F4000030F5008A317E22863122002A0853
:100E20008B31E123863177082000A3007608A200E9
:100E30000830A1008030BA003A08A00022002B0838
:100E40008B31E123863177082000A7007608A600C1
:100E50000830BA003A08A500A401BF01BF0A023059
:100E60003F020318D62F0530BA003A08F0003F08B9
:100E70008A3121228631203E860001308700010818
:100E80008B31E123863120003F35BB000130BB357B
:100E9000FF3E031D472F3B35023E203E8600870163
:100EA0007608C03F7708C13F0530BA003A08F00025
:100EB0003F088A3121228631023E203E86000130E1
:100EC000870001082000BB003F35BC000130BC3565
:100ED000FF3E031D672F3C35013E203E8600870103
:100EE0003B0881008830BA003F35BB000130BB357C
:100EF000FF3E031D772F3B35203E860087013A08D1
:100F000081000530BA003A08F0003F088A312122FA
:100F10008631013E203E86000130870001088B317A
:100F2000E123863120003F35BB000130BB35FF3E59
:100F3000031D962F3B35063E203E8600870176082E
:100F4000C03F7708C13F0530BA003A08F0003F08BB
:100F50008A3121228631033E203E860001308700FF
:100F600001082000BB003F35BC000130BC35FF3E0E
:100F7000031DB62F3C35053E203E860087013B0809
:100F800081003F35BA000130BA35FF3E031DC42F42
:100F90003A35043E203E8600870181010130BA00C7
:100FA0003A08BF0702303F02031C332F8931C021AA
:100FB000210012150800F2007235F0000130F03502
:100FC000FF3E031DDF2F7035013E203E8600870166
:100FD00081018430F0007235F1000130F135FF3EBF
:100FE000031DEE2F7135203E8600870170088100B9
:100FF00008000830F00070082000A500A4010800D7
:1012FA00080008000800080008000800080000307C
:10130A00080001300800FF300800FF300800FF30F5
:10131A00080000300800F001F10108002100490826
:10132A000800FD007D08833154230800FF30F000D7
:10133A00FF30F1000800FE0012001E00FE0BA1297A
:10134A0000342000A401A501C830F0007008A400F0
:10135A00080008302000A1008030F0007008A000CA
:10136A0008000830F00070082000A5008430F00062
:10137A007008A40008002200AF01B0012100C801D2
:10138A00C401C5012000EE01EF0108002200AF01EF
:10139A00B0012100C801C401C5012000EE01EF011E
:1013AA0008007008860087010030C03F9030C13FB6
:1013BA003230F0000030F10008000034003400340C
:1013CA0000340034E034E834083408340034D034CB
:1013DA00D834003462349034F5000530F4007408CF
:1013EA00F00075088A312122043E203E8600013031
:1013FA0087000108023908007430F3009030F400C5
:10140A007008860087017308C03F7408C13F09301D
:10141A00F0000030F10008002100AA000530A90000
:10142A002908A5002A088A314322013E203E860067
:10143A000130870001080800F200F301721C292A12
:10144A007008F1007108F3070310F00D0310F20C95
:10145A007208031D232A730808002100AA00053018
:10146A00A9002908A5002A088A314322043E203E01
:10147A008600013087000108023908002100A8000F
:10148A00A701281C4C2A2508A6002608A70703102E
:10149A00A50D0310A80C2808031D462A27080800D2
:1014AA002100A6002635A5000130A535FF3E031D03
:1014BA005A2A2535043E203E86008701010D010D7A
:1014CA00013908003530F500720886008701750871
:1014DA0081007308860087018130C03F0930C13F0F
:1014EA0074088600870181010330F0000030F100A2
:1014FA0008007108F7007008F6000130F4020030A5
:10150A00F53B740A0319750A031908007608860060
:10151A0077088700720881000130F6070030F73D2E
:10152A00822A21002608AC002508AB000130A90256
:10153A000030AA3B290A03192A0A031908002B08B2
:10154A0086002C088700270881000130AB0700308D
:10155A00AC3D9B2A20004208EF004108EE004308F8
:10156A00FC007C082100C70020003E08B1003D08AD
:10157A00B0004008B3003F08B2004008B5003F0879
:10158A00B4008D31D8250800F401F501701CD12A68
:10159A007208F4077308F53D0130F235F30D890B33
:1015AA00D22A0130F136F00C890BD72A700871045F
:1015BA00031DCB2A7508F1007408F0000800210009
:1015CA00A901AA01251CED2A2708A9072808AA3D6E
:1015DA000130A735A80D890BEE2A0130A636A50CD5
:1015EA00890BF32A25082604031DE72A2A08A600E0
:1015FA002908A500080000308931F1218B31003A11
:10160A00031D08002200AC1D0C2B01300D2B0030ED
:10161A00F8007808F9002000A401790803191B2BA7
:10162A007608F8007808A500C830202B7608F8005C
:10163A007808A5008830F8007808A4000830F80077
:10164A0078082200AC060800F7000530F400740898
:10165A00F00077088A3121228B31033E203E860032
:10166A00013087000108F5007735F6000130F635BC
:10167A00FF3E031D3C2B7635053E203E8600870142
:10168A00750881008430F4007735F5000130F535AE
:10169A00FF3E031D4C2B7535043E203E8600870114
:1016AA00740881000800F3007308031D682B700892
:1016BA0086008701D330C03F9030C13F0430F0002C
:1016CA000030F10008007303031D772B70088600B1
:1016DA0087013230C03F9030C13F3030F0000030D7
:1016EA00F100080002307306031D872B700886007C
:1016FA0087018B30C03F9030C13F1E30F000003070
:10170A00F100080003307306031D902BFF30F00030
:10171A00FF30F1000800FF30F000FF30F100080050
:10172A0022002A082000E6006608E8006808860009
:10173A0087010030811B01302100C6008731F9275B
:10174A008B312100440845040319BF2B20006E0881
:10175A006F040319BC2BF001210047082000E600A2
:10176A006608F1006F088A006E080A008B31893119
:10177A00C0218B312000680886008701010E890C80
:10178A000339003A031DD22B803134208B312000DB
:10179A00E6006608E700E71FDE2B68088931962114
:1017AA008B312000E6006608E700E71FDE2B89314F
:1017BA00B6213D000E120800F8007808FB00FF3938
:1017CA00031D0030FC0020307C02003003197B022C
:1017DA00031CF42B7C08F7007B08F60008007C0841
:1017EA002000B0003008F9007B08B0003008FA0089
:1017FA007A088039B000B1017908B200B301B23574
:10180A00B30D30083207B4003108333DB50034084F
:10181A0035040319122C0130132C0030B600B7011D
:10182A003608F0003708F1005030F2000030F300BB
:10183A008A31C9227A087F3970072000B8007108F6
:10184A000318710AB9003808E03EF6001F30393D26
:10185A00F70008002100B8003808BA00FF39031D54
:10186A000030BB0020303B02003003193A02031C4F
:10187A00432C3B08AC003A08AB0008003B08AD001B
:10188A002D08B7003A08AD002D08B900390880398B
:10189A00AD00AE013708AF00B001AF35B00D2D086D
:1018AA002F07B1002E08303DB20031083204031967
:1018BA00602C0130612C0030B300B4013308A5005C
:1018CA003408A6005030A7000030A8008A31E4226C
:1018DA00210039087F392507B50026080318260A8A
:1018EA00B6003508E03EAB001F30363DAC000800BC
:1018FA002100B00049080319080030088A31322251
:10190A008C31003A031D080021003035AD0001304A
:10191A00AD35FF3E031D8D2C2D35043E203EAE0015
:10192A002E08B1000530AD002D08A50030088A3117
:10193A0043228C31043E203E860001308700811DFF
:10194A00A82C0130A92C00302100AE002E08AF00CF
:10195A0031088600870181012F080319BD2C2B0845
:10196A00AD00310A860087012D088100C830C52CD8
:10197A002B08AD00310A860087012D0881008830C6
:10198A00AD003108860087012D0881000830AD00BE
:10199A000530AE002E08A50030088A314322043EE5
:1019AA00203E86000130870021002D0881060800AC
:1019BA000B178B1785311B258C3164302100C2002F
:1019CA0042082200BA0007302100C2004208220061
:1019DA00BB00BC01BC0A893193218C31003A03193E
:1019EA00F02C01308A3132228C31003A031DF02C5E
:1019FA0001308A3155228C31003A031DF02C013016
:101A0A008A3111228C312100C20042082200BD0015
:101A1A003D088600870181010130BB02031D1B2D91
:101A2A003C08B800B901B81BB9031D2DB801B901AA
:101A3A0038082100C20022003D0A860087012100E1
:101A4A004208810022003D08023E8600870181018A
:101A5A0003302100AB000030AC0001308C317D2412
:101A6A008C3122003B08031DF02C0130BA02031D01
:101A7A00522D64302100C20042082200BA003C08FC
:101A8A002100C2004208A500FF308A3143228C316E
:101A9A002100C30043082200BC0007302100C20015
:101AAA0042082200BB00F02C20002108F200720834
:101ABA00F60021004603031D772D20006E086F04EF
:101ACA000319742DF001F00A21004708F200720888
:101ADA00F10020006F088A006E080A008D318931F2
:101AEA00C021080021004808031908007608F200FE
:101AFA00F30145087302031D842D44087202031C76
:101B0A008B2D4508F5004408F400922D7608F20062
:101B1A00F3017208F4007308F5007408F200720801
:101B2A00F70048088600870122002A0884008501F8
:101B3A007708F20072080319A62D12001E00F20B94
:101B4A00A22D7708F20072082100C8077708F20070
:101B5A00F3017208C4027308C53B08307602031CFD
:101B6A00BA2D44084504031D0800760877020318B5
:101B7A00D52D8931B6218D3120006E086F040319E5
:101B8A00D22DF00121004708F2007208F10020006E
:101B9A006F088A006E080A008D318931C021080059
:101BAA008931A621080000302000330208300319C9
:101BBA003202031CE52D0830B6000030B700E92DCB
:101BCA003308B7003208B6003608FA007A08BC00B3
:101BDA003C08FA00FB0135087B02031DF62D340888
:101BEA007A02031CFD2D3508B9003408B800042E0A
:101BFA003C08FA00FB017A08B8007B08B9003808EB
:101C0A00FA007A08BC0035083302031D0E2E340888
:101C1A0032020318122E0130132E0030FA007A080D
:101C2A002200B1002B0886008701200030088400BA
:101C3A00310885003C08FA007A080319282E120098
:101C4A001E00FA0B242E20003C08FA00FB017A0839
:101C5A0030072200AF007B082000313D2200B0008F
:101C6A00200033083502031D3C2E32083402031CBF
:101C7A00422E3308BB003208452E3508BB00340813
:101C8A00BA003C08FA00FB01FA09FB09FA0A03192F
:101C9A00FB0A3A087A072100C40020003B087B3D72
:101CAA002100C5002200AC1520003C08FA00FB0107
:101CBA007A08F6007B08F7008B310023080022001F
:101CCA00340803196D2E33083D0096002200B40132
:101CDA002100440845040319CB2E00304502083080
:101CEA0003194402031C7F2E08302000B000003084
:101CFA00B100872E210045082000B10021004408C8
:101D0A002000B0003008FA007A08B20022002B083E
:101D1A008600870122002F088400300885002000F1
:101D2A003208FA007A0803199E2E12001E00FA0BD6
:101D3A009A2E20003208FA00FB017A082100C40218
:101D4A007B08C53B20003208FA00FB017A08220012
:101D5A00AF077B08B03D210044084504031DC02E8F
:101D6A00083020003206031DC02E22003108031954
:101D7A00C02EB201B20A20003208FA00FB017A082A
:101D8A00F6007B08F7008B31002308002200320896
:101D9A000319DA2E0030F600F7008B3100238E315A
:101DAA002200B2018931C021080021004608031D22
:101DBA00080020006E086F040319F02EF001F00AE3
:101DCA0021004708FA007A08F10020006F088A000B
:101DDA006E080A008E318931C02108003D00101CAE
:101DEA00FE2E893180218E31863181268E313D0049
:101DFA001010901E402F01302100A3000030A400D3
:101E0A002408803A2000E90080306902031D102F5F
:101E1A0002302100230203183E2F98302000E900E7
:101E2A000E30EA002100230820006907EB00210098
:101E3A00240820006A3DEC006B082100A000200065
:101E4A006C082100A10020088600210887000110E3
:101E5A000130A3070030A43D2408803A2000E9009D
:101E6A0080306902031D3C2F023021002302031C2B
:101E7A00122F3D009012901DF42F0F0C2000E90044
:101E8A00E90C690C0F39003A031D712F3D000F1937
:101E9A00712F2000200C890C0F39E90069082100F4
:101EAA00A2000D302206031D5E2F8B3195238E3141
:101EBA006D2F09302100220603196D2F2203031DFD
:101ECA006A2F8D3159258E316D2F8931B6218E3188
:101EDA008931AE218E31F22F3D000F0C2000E9002E
:101EEA00E90C690C0F39003A031D822F3D000F1DC2
:101EFA00822F8E3164268E31F22F3D000F0C200086
:101F0A00E900E90C690C0F39003A0319F22F3D0078
:101F1A000F0C2000E900E90C690C0F39EA000230C5
:101F2A006A020318F22F3D000F1DC72F053020004B
:101F3A00E9006908F0003D000F0C2000EA00EA0CF5
:101F4A006A0C0F398A3121228E31043E203E8600E6
:101F5A0001308700811CBC2F3D000F0C2000E900D6
:101F6A00E90C690C0F398B3129238E31F22F3D0090
:101F7A000F0C2000E900E90C690C0F3989317D2129
:101F8A008E31F22F05302000E9006908F0003D008B
:101F9A000F0C2000EA00EA0C6A0C0F398A31212260
:101FAA008E31043E203E860001308700011CE82F56
:101FBA003D000F0C2000E900E90C690C0F3987314C
:101FCA00DB278E31F22F3D000F0C2000E900E90CCF
:101FDA00690C0F3989317E218E313D009011101F15
:101FEA00FB2F89317F218E313D0010132000121DF5
:101FFA000800121108000534013409340234A134EE
:10200A00013409340134A134003405340934193453
:10201A000134293403341534003425340134953419
:10202A0003347534013481340234953401347534FF
:10203A000534813403340534013409343034093425
:10204A0031341534813425347F3475340834953469
:10205A00023481340634C034C03430340334533447
:10206A00003469340034673400346E340034613427
:10207A0000346C34003420340034313400343134C8
:10208A00003420340034533400346F34003466345E
:10209A0000347434003477340034613400347234D8
:1020AA00003465340034203400344C3400344C3469
:1020BA000034433400342E340034093402342934D1
:1020CA0000340134013402348034323409340434A3
:1020DA000034003402340334003400340234093446
:1020EA0021340134013400340134223432340034CE
:1020FA000734053481340334083400340134073496
:10210A000534013403340834003401341E340334F2
:10211A00553400345334003442340034203400340B
:10212A004D3400346F340034753400347334003461
:10213A0065340034203400344434003465340034C7
:10214A006D3400346F3400341834033449340034A5
:10215A006E3400347434003465340034723400341C
:10216A006634003461340034633400346534003436
:10217A00203400343134003412340134003402344F
:10218A000034003400340834A034A034033400345A
:10219A000134003401340234003401340434033489
:0421AA0009340434BC
:00000001FF
