:040000008031122811
:100008007E1480310B1F10282100111C102820009D
:10001800111C102880316D207E10090080311428B1
:10002800F001F101F201F301F401F5017E10200065
:100038001D28222080318B170B1721283020803172
:1000480029208031622080314B28703021009900AE
:1000580098011A1B08002D28220090018C018D019F
:100068008E01083021009000FF308C008D00FB309D
:100078008E003F3023008D008C0008302400900053
:10008800FF308D002100951322009D0108003030BB
:100098002000980099013C309700B030960017086E
:1000A800F500F4011608F4041110210011148A3027
:1000B800F6000030F700652080316A281630970076
:1000C80008007708F3007608F200080020001814EA
:1000D800080011107508970074089600F00A0319B3
:1000E800F10A003071020A3003197002031C08007B
:1000F8008020F001F1010800720873040319080058
:1001080073088A0072080A0080310800043022004F
:040118008E06080047
:020000040001F9
:04000E00E4FFFFFF0D
:00000001FF
