:020000001228C4
:100008007E14803120007F08F1000B1A8B1C0D280C
:10001800502471082000FF007E1009001328FB01FE
:100028002000E001E101E201E301E401E501E6016C
:10003800E701E8017E1020009C292000B800273045
:10004800AD002D08B10020002608AE002508AD003F
:10005800A50A0319A60A2D0884002E0885000008A1
:10006800AF002F08B9003908031996292530390639
:1000780003194A283908AD003808860087012D0879
:1000880081000130AD002D08B8072728B601B70157
:10009800B501532835150130A5070030A63D2508C0
:1000A8008400260885000008303A03194E285C2889
:1000B800250884002608850000083625031C912899
:1000C8002000B601B7010A30F2000030F30020002A
:1000D8003708F5003608F400A72473082000B70095
:1000E8007208B60025088400260885000008D03E5E
:1000F800AD00FF3003180030AE002D08B6072E08FB
:10010800B73D0130A5070030A63D25088400260824
:100118008500000836250318672820002608AE0049
:100128002508AD00A50A0319A60A2D0884002E0883
:1001380085000008B900003A03199629643A0319A2
:10014800A9280D3A0319A928272820003108860074
:100158008701403FB300413FB4000230AD002D0895
:10016800B107B41FC0280330AD002D08B504B3098A
:10017800B409B30A0319B40AB901B90A0530390632
:100188000319E5283908AD00AE01AD35AE0D903044
:100198002D07840085302E3D8500003FAF00013FCC
:1001A800B00030083402031DDB282F083302031C7B
:1001B800E5280130AD002D08B90705303906031DC3
:1001C800C628360837040319F128350803390319F6
:1001D800F128FF30B607FF30B73D3908AD00AE0152
:1001E800AD1BAE032E08803AAF003708803A2F02C5
:1001F800031D002936082D0203180D29200039088F
:10020800AD00AE01AD1BAE032D08B6022E08B73BFC
:1002180010292000B601B701351D352935080339E5
:10022800031921292D30AD003808860087012D08D3
:1002380081000130AD002D08B807360837040319CE
:100248005B293030AD003808860087012D08810011
:100258000130AD002D08B807FF30B607FF30B73DB5
:1002680021293608370403194C292030AD003808F5
:10027800860087012D0881000130AD002D08B807E0
:10028800FF30B607FF30B73D36083704031D39295C
:100298003508033903195B292D30AD00380886006D
:1002A80087012D0881000130AD002D08B8073908F5
:1002B800AD002D08B200FF30AD002D08B207320A9C
:1002C800031927280A30A0000030A1003208AD0029
:1002D800AE01AD35AE0D90302D07840085302E3D32
:1002E8008500003FF200013FF3003408F5003308B1
:1002F800F4001B2373082000A3007208A200AD239A
:1003080020002008303EAF002F08B9003908AD00A2
:100318003808860087012D0881000130AD002D08BE
:10032800B8075F2920003808860087018101080086
:10033800B92500307F234F238B170B17640020004B
:1003480068080319A2293124DD24F4302000A5000F
:100358008430A6006408BA00BB013A08A7003B082D
:10036800A8006508BC00BD013C08A9003D08AA001A
:100378006608BE00BF013E08AB003F08AC00403035
:10038800212003302000BA003A08F6004030BB00B4
:100398003B08F700F8010030972227302000A5001D
:1003A8008530A6006208BA00BB013A08A7003B08DE
:1003B800A8006108BC00BD013C08A9003D08AA00CE
:1003C8006008BE00BF013E08AB003F08AC004030EB
:1003D800212004302000BA003A08F6004030BB0063
:1003E8003B08F700F801013097222000E801A22914
:1003F800F801F31F062AF209F309F20A0319F30AAE
:10040800F801F80AF51F112AF409F509F40A031985
:10041800F50A0130F6007608F806F901FA017208C3
:1004280073040319402AF701F70AF31B252A013040
:10043800F235F30D890B1C2A0130F6007608F70710
:10044800192A0130F935FA0D890B262A7308750225
:10045800031D302A72087402031C372A7208F4023A
:100468007308F53B79140130F336F20C890B382AFE
:100478000130F702031D252A78080319482AF909CB
:10048800FA09F90A0319FA0A7A08F3007908F20056
:1004980008002000B100290807242000AF002F0819
:1004A800A6000630522520002E08AF000530AF35D3
:1004B800890B5B2A2808072420002F04B000300885
:1004C800A600053052252000310807242000AF007F
:1004D8002F08A6000430522520002A0807240838CF
:1004E8002000AF002F08A6000330522520002B085B
:1004F80007242000AF002F08A60002305225200054
:100508002C0807242000AF002F08A6000130522530
:1005180020002D08072480382000AF002F08A600EF
:100528000030522508002000A0000330F9007908A7
:10053800A0050F30F9007908F6052008BE3E8400B2
:1005480085300318013E850000087607F900790810
:10055800A100210844254230890BB02A00327808CE
:100568000319C02AC72A7708860087010108A4252D
:100578000130F9007908F707770886008701010834
:1005880003190800B72A2000A101780821020318DE
:1005980008007708860087010108A4250130F900C2
:1005A8007908F7070130F90079082000A107C92A5E
:1005B800F300F40121008E17FB0108307B020318B9
:1005C800022B0310F40D22000E1700320032003205
:1005D800003220000E0D0E0D0139F2007208F404ED
:1005E80022000E1300320032003200320130F200D5
:1005F8007208FB0708307B02031CE62A21008E13D1
:10060800730803190A2B22008E130C2B22008E1755
:10061800003200320032003222000E17003200325F
:100628000032003222000E138E1374080800F701FE
:10063800F8017208730403194A2BF901F90AF31B2C
:100648002F2B0130F235F30D890B262B0130F600E4
:100658007608F907232B0130F735F80D890B302B75
:1006680073087502031D3A2B72087402031C412B90
:100678007208F4027308F53B77140130F336F20C74
:10068800890B422B0130F902031D2F2B7808F30048
:100698007708F2000800D030F500CA30890B522BD9
:1006A800F50B522B03306E2479251A30F500F830FB
:1006B800890B5C2BF50B5C2B003279258530890B77
:1006C800632B0000792502306E24792528304425D3
:1006D8000C30442506304425013044250330F6000B
:1006E8000830F5007730890B772BF50B772BF60B55
:1006F800772B000008002000B400AC254030200013
:10070800B2003208A6000730522520003408B20093
:100718003208A6000830522503301625203920005B
:10072800B2003208E3002030630603190800A8016C
:10073800A80A1030B2003208A9000630B300330806
:10074800AA00AB01AC01AD01AE01AE0A01304D22E9
:1007580008002000200821040319D52BA401A40AAD
:10076800A11BC02B0130A035A10D890BB72B01307F
:10077800FA007A08A407B42B21082302031DC62B0C
:1007880020082202031CCC2B2008A2022108A33B2C
:100798000130A136A00C890BCD2B0130A402031D1A
:1007A800C02B2308A1002208A0000800F3002100A4
:1007B8008E13FB0108307B020318FE2BF31FE72B77
:1007C80022008E17E92B22008E130310F30D0E174B
:1007D800003200320032003222000E1300320032A2
:1007E800003200320130F2007208FB0708307B0249
:1007F800031CE22B22000E170032003200320032B6
:1008080022000E1308002000A4000A30F200003075
:10081800F3002408A000A1012008F4002108F50035
:10082800FC2172082000A2002208A5000A30A000BE
:100838002008F20025080525FF3A013E200024077C
:10084800A1002108A3002508A0000330A035FF3E21
:10085800031D2A2C203523040800063016258B2476
:100868002000A0002008E600053016251F398B243B
:100878002000A0002008E500043016258B24200065
:10088800A0002008E4000330162507398B24200037
:10089800A0002008E300080003102100151F03141E
:1008A800031C592C210015175B2C2100151301304E
:1008B800F00070082000E800031022000C1C03144C
:1008C800031C692C22000C146B2C22000C108B10BA
:1008D80085250800F200720C2200031C0E11031873
:1008E8000E150310F20C720C031C8E1103188E15D2
:1008F8000310F20C720C031C0E1203180E160310D0
:10090800F20C720C031C8E1203188E160800FA00E3
:100918007A08F6007608F9000A30F6007608F20040
:100928007908F7000430F736890B972C77080525E6
:10093800F8007808FA0079080F397A07F60076087F
:10094800FA007A080800F601F701721CAF2C740847
:10095800F6077508F73D0130F435F50D890BB02C15
:100968000130F336F20C890BB52C72087304031DA1
:10097800A92C7708F3007608F200080022008C0101
:100988008D018E013E3021008C00F0308D00C0308A
:100998008E0023008E0130308D0012308C00F03034
:1009A80024008D003E308C002100951322009D010B
:1009B8000800023016258B242000A0002008E20041
:1009C800013016258B242000A0002008E10000300B
:1009D80016257F398B242000A0002008E00008009D
:1009E80025343034323464342E34253430343234BF
:1009F80064342E3432343034253430343234643470
:100A08000034F500F401751C0D2D7208F30073080D
:100A1800F4070310F20D0310F50C7508031D072DDC
:100A280074080800F6006C25DE30DA237608DA232D
:100A38006C25DF30DA230030DC22F5007508F7007A
:100A48005F257708080025343034323464343A346A
:100A580025343034323464343A3425343034323442
:100A680064340034F300F2013A3073020318422D63
:100A780030307302031C422DF201F20A720C080096
:100A8800F4007408F3000430F336890B482D73081A
:100A98006E24792574086E24792508002000A700A3
:100AA8006C25DE30DA2320002708DA232000260808
:100AB800DA235F25080021008E1322000E138E13FF
:100AC8000E17003200320032003222008E17080062
:100AD80021008E1322008E170E17003200320032CA
:100AE800003222008E130E13080022008E140430E8
:100AF800890B7C2D22008E104230890B812D00320B
:100B08000800200069086A04031908006A088A00B6
:100B180069080A0085310800013400340A340034B9
:100B280064340034E8340334103427348B10210043
:100B38001513CA30F2000530F300B3250B16080070
:100B4800F50022000E147508442522000E10080036
:100B580022000E178E1721008E130E13080073083B
:100B68002000EA007208E9000800C224C625C22550
:100B78009A2508008034C0349034D03416302100CF
:0E0B880097000800783021009900080008004E
:020000040001F9
:04000E00FCFFFFFFF5
:00000001FF
