:1000000080310D28080008007E14803120007F0810
:10001000F0007008FF007E10090080310F28FC01FD
:10002000A03084000030850045308B310B238031B7
:10003000313084000130850008308B310B23803152
:10004000A03084000130850040308B310B2380319B
:10005000203084000330850040308B310B237E102C
:1000600020008B31192B20005203031D4928500812
:100070001F39003A031D49282100A9170330200029
:100080005106031D47282100DB01DB0A4928210016
:10009000DB0120005208031D080050081F39023AF6
:1000A000031D080054080F39003A031908005408CA
:1000B0000F39EB0003306B020318080020302100D9
:1000C0006006031D0800A9172000D41B76285408D9
:1000D0000F39B93E860087010108EB006B0821004B
:1000E000E800200054080F39B03E8528200054084D
:1000F0000F39B63E860087010108EB006B0821002E
:10010000E800200054080F39B33E8600870101083B
:10011000EB006B082100E70067189528FB302000F2
:10012000EB006B082100E805962868152000D41B19
:10013000A128210068082000EB0054080F39B93EBF
:10014000A828210068082000EB0054080F39B63EAB
:10015000860087016B08810003305106031DCE28FD
:100160002100680886008701811FC3282000D41B56
:10017000BD2854080F39B03EC02854080F39B33E8B
:1001800086008701811484302000EB00210068087C
:100190008600870120006B08810408000430EB0012
:1001A0006B082100E806680886008701811FFA288D
:1001B0007F302000EB0021006808860087012000C6
:1001C0006B0881052100680886008701011705304A
:1001D0002000E6000030E700210068082000EB0066
:1001E0006B08E8000130E9000030EA008D3120257D
:1001F0008031FF282100680886008701011704303C
:100200002000EB006B082100E806E7180C296808BD
:1002100086008701811F34292000D41B132954082C
:100220000F39B03E162954080F39B33E86008701B6
:1002300081103B30EB002100680886008701200018
:100240006B0881050530E6000030E70021006808F2
:100250002000EB006B08E8000130E9000030EA0004
:100260008D31202580313E293B302000EB002100DC
:1002700068088600870120006B088105200054086B
:100280000F39983EEB00EC010E30EC3D6B0821007D
:10029000E50020006C082100E600FE302000EB00A5
:1002A0002100650886006608870020006B0881052C
:1002B000080021006008031D6D293D008E01920198
:1002C000163091009F3097007B3092008E196A297A
:1002D0008E1566292100E001E00A6003031D7C29D8
:1002E0003D008E1A7C2990019201121412160230E0
:1002F0002100EE006E08E0003D001019121D892952
:10030000FB302100EE006E083D0090058B31592333
:1003100081313D008E1C8F29200012110800101819
:10032000121C9F298331A123813104302100EE006A
:100330006E08E000FE30EE006E083D009005101AD9
:10034000121EAB298B316E238131EF302100EE007C
:100350006E083D009005101FCE29121FBC29733076
:100360002000E6000030E700E8010130E90000303D
:10037000EA008D3120258131BF302100EE006E086A
:100380003D009005210057080319C8290130D70204
:100390005708031DCE298F313E2781313D00901A29
:1003A000921ED5298B319E2381313D009018921CDD
:1003B000E829FF302000E6007F30E700E801013047
:1003C000E9000030EA008D31202581313D009301A4
:1003D0000430210060020318F029200012110800E7
:1003E0003D00921D442A2200B9010430390203184D
:1003F000442A3D00901D442A0F082100EE006E089B
:10040000E300630CEE00EE0C6E0C0F39EF006F088A
:10041000D900F730EE006E083D0090052100631909
:10042000142A5908B03E162A5908B33E860087019F
:1004300001080139EE000130EE0601086E06FE39B2
:100440006E0681005908031D292A8731172781313B
:100450003A2A72302000E6000030E700E330210045
:10046000EE006E082000E8000030E900EA008D315F
:100470002025813101302100EE006E082200B907ED
:1004800004303902031CF929200012110800210050
:100490004C080319592A4C0886008701010D010DEB
:1004A0000139F800F90178082000E0007908E1003E
:1004B0005C2A2000E001E10160086104031D0800DE
:1004C0000330210050060319D00150080319080019
:1004D00002305006031D7C2AF101F10AF201F301FA
:1004E00002308D315F25F80078082100CC00033000
:1004F000F8007808D00008005003031D08004130C0
:100500004F02031C852A4030872A21004F08F8003B
:1005100078082000E3006303FF3A21004F07F8004A
:100520007808CF002030F8007808C0002000630869
:10053000F8007808E20021004E080319B82AD52AED
:10054000210042088600013087000108F8004008B9
:10055000860002308700780881000130F8007808B2
:10056000C0070130F8007808C20701302000E2021D
:10057000200062080319D92AA02A21004208860017
:10058000013087000108F80040088600023087002B
:10059000780881000130F8007808C0070130F800C1
:1005A0007808C20701302000E20220006208031D23
:1005B000BD2A21004F08031DE92A403020006306B0
:1005C000031DE42A0230E52A0330F80078082100F0
:1005D000D000F101F10A2030F8007808F200200084
:1005E0006308F9007908F30002308D315F25FA00C5
:1005F0007A082100CC00080021005F0886008701EE
:10060000413F2000EA006A08FA00FB017B08210054
:100610002402031D0D2B7A0823020318142B230830
:10062000FA007A082000EA000330A03E8600870125
:1006300020006A08FA00FB01FA09FB09FA0A03190B
:10064000FB0A403F7A072100A300413F7B3DA40005
:100650002000E9016A0869020318452B6908583E21
:10066000860087010108FA00210020088600013079
:1006700087007A0881000130FA007A08A00701306B
:10068000FA007A082000E9072A2B21002308240415
:100690000319722B0830FA007C0A860087017A0859
:1006A00081005830FA000030FB007C08023E8600D2
:1006B00087017A08C03F7B08C13F5F088600870139
:1006C000011B6A2BC830FA007C08860087017A0873
:1006D000810008008830FA007C08860087017A08CB
:1006E000810008000830FA007C0A860087017A0839
:1006F00081005030FA000030FB007C08023E86008A
:1007000087017A08C03F7B08C13F8430FA007C082B
:10071000860087017A088100250826040319992B91
:100720000530A03E86008701413F8A00403F0A0015
:1007300083312100A2135608031D08008F313E2784
:100740000800210012113D009301900198010E3024
:10075000F3009930F200F401023074020318C12B47
:10076000720886007308870081010130F2070030AB
:10077000F33D0130F1007108F40702307402031CEC
:10078000B02B16303D0091009F3097007B309200D7
:10079000F5010C3075020318E62B7508F1000130E5
:1007A000F135FF3E031DD02B7135203E86008701B9
:1007B0000030C03F0030C13FC23FC33F0130F100B5
:1007C0007108F5070C307502031CCD2B3D000E1788
:1007D00096010E120E133D00901DF82BF730F1001C
:1007E000710890052100A901A201A301A401EB2B2E
:1007F0000130F10071082100D5000130F1007108CD
:10080000D400D301D201DA01F501033075020318D7
:10081000252C7508B63E8600870181017508B93E12
:100820008600870181017508B33E8600870181013A
:100830007508B03E8600870181010130F100710822
:10084000F50703307502031C092C2830F1007108EC
:100850002100B60016303D00980000302000A300B3
:100860005030A2000830A1008430F1007108A000CF
:100870002100E401E001080021003E083F04031DBF
:10088000452C1030BE002730BF000130BE020030C2
:10089000BF3B3D008E1C622C21003E083F04031D1F
:1008A0000800031022000E1C0314031C5A2C220003
:1008B0000E145C2C22000E100E1C602C8E100800F2
:1008C0008E14080021006008031D6A2C22000E14FB
:1008D0008E14080021006003031D722C22000E10EC
:1008E0008E100800023021006006031D7B2C2200C0
:1008F0000E108E140800043021006006031D842CA5
:1009000022000E148E100800103021006006031D16
:100910009A2C3E083F04031D0800031022000E1C01
:100920000314031C962C22000E14982C22000E1087
:100930008E140800203021006006031D08003E08C8
:100940003F04031D080022008E1DB12C0E1CAA2C92
:100950000E14B42C210044080319BD2C22000E10E3
:10096000BD2C0E18B72C0E102100C401BD2C210087
:1009700044080319BD2C22000E1422008E1CC42C26
:100980008E142100C5010800210045080319080044
:1009900022008E1008002100A9170E302000EC0064
:1009A0009930EB00ED0102306D020318E82C6B0862
:1009B00086006C08870081010130EB070030EC3DB8
:1009C0000130FB007B08ED0702306D02031CD72CC1
:1009D0000030F100F2003030F3000030F40020303D
:1009E0008B31842384313D000E172000EE0103304B
:1009F0006E0203180D2D6E08B33E8600870181013B
:100A00006E08B03E8600870181010130FB007B0843
:100A1000EE0703306E02031CFB2C0030F100F200E5
:100A20000230F3000030F400E1308B318423843154
:100A30003D000E132830FB007B082100B60020305B
:100A4000FB007B08DF005F08FB007B08FC00200048
:100A50005208FB007B082100E4006408031D352DCB
:100A60001030FB007B08E000080001302000E600A9
:100A70000030E700E430FB007B08E8000130E900CB
:100A80000030EA008D3120252030FB007B0821005A
:100A9000E0000800803020005006031D0800C03030
:100AA000F10071082100A900B62DAB302100A7008C
:100AB0009030A8001230AA000030AB0008002000DF
:100AC0005208F100F201F135F20DC73071078400D0
:100AD0009030723D8500003F2100A700013FA80033
:100AE0002808F2002708F10002307107840072081C
:100AF0000318720A85000008F3007308AA0028088A
:100B0000F2002708F100033071078400720803180F
:100B1000720A85000008F3007308AB000800033078
:100B2000200052020318B02D5208F100F201F135F5
:100B3000F20DBD30710784009030723D8500003F9A
:100B40002100A700013FA80027088400280885008D
:100B50000008F100F2017108AA007208AB00080059
:100B60002100A90108002100A90108002000530864
:100B7000013A0319552D033A03195F2D013A031960
:100B80008F2DB32D080084313C2485312030210085
:100B90006002031C08003D008E1808002100470871
:100BA000031DE62D40302000E4006408F8002030EA
:100BB0008E31E62685312000E50065082100C90058
:100BC00049080319E62DC701C70AC80147080319D8
:100BD000002E23009E1C002E21004808203E860087
:100BE0000330870001088B3111238531013020004B
:100BF000E40064082100C807480849060319C70132
:100C00002000911E212E3F3021004A020318212E80
:100C10008B31462385312000E40021004A08A03EA4
:100C20008600013087002000640881000130E40064
:100C300064082100CA074A08A03E860001308700E8
:100C4000810121005008031D332E4A080319332E59
:100C50004A082000E4006408F100A0308731EE2744
:100C600085312100CA018231472208003D000E1261
:100C70002100A91B6C2EA21F4A2E0230F600760816
:100C8000DD005208031D462E8D31A6252100D4011A
:100C9000D50108000830F6007C0A86008701760836
:100CA00081005030F6000030F7007C08023E8600DC
:100CB00087017608C03F7708C13F8C30F6007C087A
:100CC00086008701760881008430F60036088600A9
:100CD00087017608810008002000D01F812E2100A6
:100CE000DD01DD0A5308031D782E8D31A6258631DE
:100CF0002100D401D5015608031D08008F313E277D
:100D000008000230F60076082100DD000830F60009
:100D10007C0A86008701760881005030F60000309A
:100D2000F7007C08023E860087017608C03F7708FE
:100D3000C13F8430F6007C08860087017608810078
:100D4000D401D5015608031D08008F313E27080045
:100D50000830F1007108F300003021002B02083048
:100D600003192A020318C52E2A08F1007108F3009E
:100D70005E08031DBE2EDE01DE0AC52E5E03031DC6
:100D8000C52E0230F1007108DE000330A73E860058
:100D900087017308F100F201F109F209F10A031960
:100DA000F20A403F7107AA00413F723DAB00730851
:100DB000F100360A86008701710881005830F10081
:100DC0007108DC00291CFA2E132F2708840028083C
:100DD00085000008F1005C08860087017108810029
:100DE0000130A7070030A83D0130F1007108DC0791
:100DF0000130F302730803190800E52E2708840068
:100E0000280885000008F1005C0886008701710849
:100E100081000130A7070030A83D0130F1007108C2
:100E2000DC070130F302730803190800FE2E2D3091
:100E30002100EA006A08D7006308FD39031D7A2FF4
:100E400063363F39EA000130EA35FF3E031D242FA7
:100E50006A35203EEB006B08DF005F08EA006A0895
:100E6000FC000430EA006A08FC065F08860087017F
:100E7000010C890C0F390D3A031D772FED01083055
:100E80006D020318682F5F08023E86008701403F0D
:100E9000EA00413FEB006A0886006B088700010802
:100EA000EC006D08503E860087016C0881005F08E9
:100EB000023E860087010130810741310318810A13
:100EC0000130EA006A08ED0708306D02031C432F69
:100ED0005030EA000030EB005F08023E86008701D8
:100EE0006A08C03F6B08C13F8C31E42408008C3194
:100EF00006240800FD3021006305EA0004306A067C
:100F0000031D08008F3198270800200050081F3962
:100F1000013A031D0800500E890C0339013A031DE4
:100F2000080054080319DB2F5403031D0800DB2FAE
:100F300031302100A7000130A8000830AA0000309D
:100F4000AB002914A917080031302100A700013097
:100F5000A800A9170800200057082100A4002000BD
:100F600056082100A3002730F1007108A00032309C
:100F7000A5000C30A600A217080020302100A70011
:100F80000130A8000730AA000030AB00C130F100EA
:100F90007108A900080020005208F1007108210022
:100FA000CB004B1CD62F22008E11D82F22008E157D
:100FB0002100A917080020005108003A0319982FB2
:100FC000013A0319A42F213A0319AB2F013A03194F
:100FD000BD2F033A0319CB2FED2F0800F30021009A
:100FE0005008031D08007308F2007208C20071085F
:100FF000F2007208CF00CE01CE0AD001D00A08005C
:101000008E31B12E8E31B42E8E31E52E8E31B42E2E
:101010008E31E52E8E31982E8E31A12E8E31CF2E2F
:101020008E31A72E8E31A42E8E31B72E8E31C32E47
:041030008E31E52EEA
:101604000800080008008731852708008C316D2404
:101614000800640080010131890B0C2B0034F100B7
:10162400710823009A002100C501C50A08008B3106
:1016340023238B31813159218B318531C3258B3162
:101644001C2B23008C018E0121009801FC30990091
:10165400903027009B008B31E1238B318331A12310
:10166400080021008E160E12243023009E009030B4
:101674009D0071309B0002309C0008309F001908C7
:10168400F1007108F200080023009D1C502B1D126C
:101694001908F1007108F2001D16542B1908F10005
:1016A4007108F2002100C401C40A72080800210074
:1016B400DA0174302000E6000030E700E801003071
:1016C400E900EA008D3120253D008E101211FB3017
:1016D400FB007B08900508003D001215EF30FB006D
:1016E4007B0890058E142100DA01DA0A7530200097
:1016F400E6000030E700E8010030E900EA008D313F
:1017040020250800F7007708F5007508F600013079
:10171400F3020030F43B730A0319740A0319080036
:101724007108F5007608860087017508810001308C
:10173400F5007508F607892B3D00181CB92B21000C
:101744005F088600870180300106031DB72B360829
:101754008600870184300106031DB72B8C30F1000D
:101764005F0886008701710881003D001810DF3092
:10177400F1007108900508002000E200781DC72BD5
:10178400F10162088C31A8248B31F81CCF2BF101B4
:10179400F10A200062088C31A82420006208983ED7
:1017A400F900FA010E30FA3D7908E0007A08E10008
:1017B40060088600610887007808810008008B3182
:1017C40033238B31F401403074020318F72B74086F
:1017D400A03E86000130870081010130F3007308C8
:1017E400F40740307402031CE92B2100CA01C9012B
:1017F400C601FC30F300730822008E05FC30F300B0
:10180400730821008E050800023021005D06031DC7
:101814000E2C8231FC2208002100DD015808031D32
:101824002F2C08302000EB007C0A860087016B080F
:1018340081005030EB000030EC007C08023E860052
:1018440087016B08C03F6C08C13F8C30EB007C08FB
:10185400860087016B08810008002100D801080078
:1018640022002A08031D080001302702C230283B49
:101874000130293B031808002A08A3002908A20004
:101884002808A1002708A0002308F4002208F30078
:101894002108F2002008F1000030F800B730F7000A
:1018A4001B30F6000030F5008E313D26FF30710705
:1018B4002000E500FF30723DE600FF30733DE70095
:1018C400FF30743DE800650823009B002000660893
:1018D40023009C00080000302200A3000030A20076
:1018E4004B30A1000030A000A401A5010830200065
:1018F400E30063082200A6002100D1011A30200071
:10190400E3006308F80001308B31BE238C311E30B4
:101914002000E3006308F80002308B31BE238C31D1
:10192400F101A0302000E3006308F2004030E4003D
:101934006408F30002308D315F252000E50065085E
:101944002100CD00CC018E11D0010800F60020301A
:10195400F2007208F7007108F2000130F235890BC9
:10196400B02C7608F3000130F335FF3E031DB62C8E
:1019740073357207F4000130F435FF3E031DBE2CAD
:101984007435F5007508F707770886008701811319
:101994007108031DD22C7708F2007608B93ED62CC4
:1019A4007708F2007608B63E860087017208810047
:1019B40077088600870101137708043E86008701B3
:1019C400011708002100DE01D601D301D201D8019C
:1019D400DD017F30E900360886008701690881054A
:1019E4000430E9006908B6067F30E900360886004D
:1019F4008701690881050430E9006908B6067F306B
:101A0400E9007C088600870169088105A901AA010B
:101A1400AB01A201A301A4018E3190268C310330C5
:101A24002000E6000030E700E8010030E900EA00A9
:101A34008D3120258C31863136260800362D8031B3
:101A4400032008008B3104230800803102200800A1
:101A54008B31082308008B31032308008B310523C5
:101A640008008B310223080020006708003A03199C
:101A74003F2D7F3A0319592D5E2D6608013A03194B
:101A84002A2D033A03192D2D013A0319302D063A54
:101A940003195E2D773A03195E2D013A0319212D9E
:101AA400073A0319272D013A0319242D5E2D6608E0
:101AB400FF3A0319332D5E2D0800F600710803194F
:101AC400662D7608B63E682D7608B93E86008701F5
:101AD4000108F4007408F7007708031D732D003023
:101AE40008007208F4000230F5007708023E860010
:101AF40087017408C03F7508C13F7308F400770A72
:101B040086008701740881004030F400770886005D
:101B14008701740881058830F400770886008701FE
:101B240074088104710803199C2D0430F4007608AC
:101B3400B63EA02D0430F4007608B93E8600870135
:101B440074088106770808002100D301D20102300D
:101B54005D06031DC82D0830F4007C0A8600870149
:101B6400740881005830F4000030F5007C08023E0F
:101B7400860087017408C03F7508C13FC830F4006F
:101B84007C08860087017408810008002B08200067
:101B94005702031DD12D21002A08200056020318E4
:101BA400DA2D57082100AB00200056082100AA00B6
:101BB4008631A8265830F4000030F500210036089C
:101BC400023E860087017408C03F7508C13FC830D3
:101BD400F40036088600870174088100080020009C
:101BE400D801D901242E2100A9172000581421005E
:101BF4005B03031D302E2000D814302E2100A917BA
:101C0400302E2100A9172000D41B0C2E54080F39A4
:101C1400B93E0F2E54080F39B63E860087010108DD
:101C2400F1007108F200720886008701811F302ECE
:101C3400720886008701011D302E0130F100710801
:101C4400D800302E50081F39003A0319F52D013AF7
:101C54000319002E033A0319032E302E2100A91F65
:101C640008005830A7000030A80029140230F10001
:101C74007108AA00080000302000E3000030E200F0
:101C84000030E1000030E000740873047204710451
:101C94000319872EE401E40AF41B5C2E0130F135AC
:101CA400F20DF30DF40D890B512E0130F900790872
:101CB400E4074E2E0130E035E10DE20DE30D890B12
:101CC4005D2E74087802031D712E73087702031DBC
:101CD400712E72087602031D712E71087502031CA1
:101CE4007C2E7108F5027208F63B7308F73B740802
:101CF400F83B60140130F436F30CF20CF10C890B50
:101D04007D2E0130E402031D5C2E6308F40062089A
:101D1400F3006108F2006008F10008002000500E92
:101D2400890C0339003A031D0800DA2E2100A91793
:101D340008302000EF006F082100E0000800853122
:101D44004A2508008431CB240800E4302100A70090
:101D54000030A8002914AA01AA0AA91708008D3185
:101D6400F125080080313320080020005408E13EAA
:101D74002100A7000030A8002914AA01AA0AA91763
:101D840008002100A91720005208EF005408E13E82
:101D9400860087016F08810008000230E6000030E9
:101DA400E700E8010030E900EA008D312025080051
:101DB4002000510884000D30040203180800883103
:101DC4000435003E820008002000E0002100D1011B
:101DD4004D080319FB2E4D0886008701010D010DE6
:101DE4000139F900FA0179082000E1007A08E200DB
:101DF400FE2E2000E101E20161086204031D3B2F75
:101E040021004D0A860087017808010203180F2F6C
:101E14004D0886008701413FF800D101780851023E
:101E240003182B2F5108A03E8600023087000108BA
:101E3400F900510820006007FA007A088600033090
:101E44008700790881000130F90079082100D10761
:101E5400102FF101A030F9007908F2004030FA00A7
:101E64007A08F30002308D315F25FB007B082100E6
:101E7400CD0021005108080021005508031D080069
:101E84000130F1007108D5005408031D0800013029
:101E9400F1007108D40002305D06031D5D2F360A7F
:101EA400860087018101C830F10036088600870169
:101EB4007108810008005D03031D0800D801083083
:101EC400F1005F0A86008701710881005030F1003B
:101ED4000030F2005F08023E860087017108C03FAF
:101EE4007208C13F8430F1005F08860087017108E1
:101EF4008100D801D80A0830F1007C0A86008701E5
:101F0400710881005030F1000030F2007C08023E7C
:101F1400860087017108C03F7208C13F8030F1001C
:101F24007C088600870171088100080021003608BA
:101F3400860087010030011B01302000E9000430D5
:101F4400FA007A082100B60608306006031DB82F8F
:101F5400200052083D00960016080319B32F1030D4
:101F6400B42F0430FA007A082100E0005D03031D59
:101F7400ED2F5830FA000030FB003608023E860090
:101F840087017A08C03F7B08C13F8631A8268F317C
:101F9400023021005E06031DD72F8430FA00360874
:101FA400860087017A088100080020006908031D63
:101FB400E42FC830FA0021003608860087017A0829
:101FC400810008008830FA00210036088600870165
:101FD4007A0881000800A21FFE2F25082604031991
:101FE400FC2F0530A03E86008701413F8A00403F18
:101FF4000A008F312100A213DD01080009340234E4
:1020040043340034023401340034C03432340934EB
:102014000434003400340134023402340134003412
:1020240005342434003410340134043424340234A8
:1020340002340534243406340034013405342434A1
:1020440001340034013407340534813403340A3450
:1020540000340134093404340134003402340A34C1
:10206400003400340034073405340234023440347C
:1020740000340034073405348234023440340034EC
:1020840000343434033443340034443400344334AB
:1020940000342034003452340034533400342D34AA
:1020A40000343234003433340034323400342034D5
:1020B4000034453400346D340034753400346C34E9
:1020C40000346134003474340034693400346F34BF
:1020D40000346E3400342034003444340034653425
:1020E40000346D3400346F340034343403344D34EC
:1020F40000346934003463340034723400346F348F
:102104000034633400346834003469340034703487
:1021140000342034003454340034653400346334DF
:102124000034683400346E3400346F3400346C345A
:1021340000346F340034673400347934003420348C
:102144000034493400346E340034633400342E34A3
:1021540000341234013400340234023400340034C4
:102164000834D83404340A340034003401340134DB
:10217400023400340134C33490347734903443341B
:0E2184009034043403340934043400349034AD
:020000040001F9
:04000E0084CFCFFFCD
:00000001FF
