:08000000803102288731F22F44
:100D10001630210097000800FF3020009B009A0148
:100D2000911007309C0008000C3026009A009801B2
:100D300099013F3025009E0508000C3026009E00DA
:100D40009C019D01FC3025009F05080070302100AA
:100D5000990098012200960121001A1B0800AC2E70
:100D6000F301F401F501750C2200031C8D1003182A
:100D70008D140030F800F9008631F2260800F001E9
:100D8000F101F201720C2200031C8C1203188C1664
:100D90000030F800F90087310927080000302000F2
:100DA0000E180130F70000308E180130F6000030C8
:100DB0000E190130A10000308E190130A00008008A
:100DC00087313A2786318631A626863186318826B4
:100DD000863186319426863186319D26863186314C
:100DE0008C2608007908FB007808FA00FB36FA0C1C
:100DF000FB36FA0C7A082600980078080339FA00C6
:100E00000430FA35890B012F1A08CF397A049A0079
:100E100008007908FB007808FA00FB36FA0CFB366C
:100E2000FA0C7A0826009C0078080339FA0004308E
:100E3000FA35890B182F1E08CF397A049E00080056
:100E4000FA007A08F9007908FB0078088600870123
:100E500001087B060319382F7B08F9007808860003
:100E60008701790881007B08031D382F01300800B5
:100E700000300800220090018C018D018E010830A5
:100E800021009000CF308C00FC308D00FF308E00B0
:100E90003E3023008D002F308C00240090013C3028
:100EA0008D002100951722009D0108008631E02663
:100EB00087318631B02687318631BF26873186312A
:100EC000CE26873164007730FC007C08F8002000D3
:100ED0000E080139873120278731003A0319842F02
:100EE000FF30F3070030F43D043074020030031982
:100EF0007302031C7D2FF301F4017408F9007308D9
:100F0000F8008631F22687317630FC007C08F80044
:100F100020000E0C0139873120278731003A031950
:100F2000A82F0030F800F9008631F22687317509C4
:100F3000FC007C08F500750C2200031C8D100318C2
:100F40008D147408F9007308F8008631F226873191
:100F50002130FC007C08F80020000E0C890C0139BF
:100F6000873120278731003A0319CA2FFF30F00755
:100F70000030F13D04307102003003197002031C8F
:100F8000C32FF001F1017108F9007008F8008731F2
:100F9000092787312030FC007C08F80020000E0C67
:100FA000FD00FD0C7D0C0139873120278731003A87
:100FB0000319622F0030F800F900873109278731C3
:100FC0007209FC007C08F200720C2200031C8C12D7
:100FD00003188C167108F9007008F800873109278A
:100FE0008731622FF001F101F201F301F401F50103
:100FF000F601F7012000A001A10120008731562F42
:020000040001F9
:04000E00FCFFFFFFF5
:00000001FF
