:0400000080312C28F7
:100008007E14803120007F08F1000B1F2728210073
:10001800101E15282000101E1528823181228031DB
:1000280027282100901E1F282000901E1F2882319B
:100038009F22803127282100101C27282000101C0F
:1000480027288231EB2271082000FF007E1009006A
:1000580080312E28F701F801F9012000C701C801F5
:10006800C901CA01CB01CC01A03084000030850051
:100078004B3083311C2380312030840001308500CF
:10008800403083311C238031A0308400013085004A
:10009800403083311C237E10200081313B29200011
:1000A800B9008131F021803175082000B80074084A
:1000B800B7007308B6007208B5003908083E860014
:1000C800870101080319A628390886008701350821
:1000D800C03F3608C13F3708C23F3808C33F390818
:1000E80086008701403FAC00413FAD00423FAE0073
:1000F800433FAF002B08A3002A08A2002908A1004B
:100108002808A0000030A7000030A6000030A50095
:100118001E30A4008131C021803120002008AC07A6
:100128002108AD3D2208AE3D2308AF3D3908043E05
:10013800860087012C08C03F2D08C13F2E08C23F0A
:100148002F08C33F3908043E86008701403FAC00B2
:10015800413FAD00423FAE00433FAF003908860043
:100168008701403FB000413FB100423FB200433FEA
:10017800B3002F083302031DCB282E083202031DBB
:10018800CB282D083102031DCB282C083002031878
:10019800F3283908043E86008701403FAC00413F00
:1001A800AD00423FAE00433FAF0038082F02031DA9
:1001B800E72837082E02031DE72836082D02031DFD
:1001C800E72835082C020318EB280130EC2800300A
:1001D800B0003908083E8600870130083429B40188
:1001E8003908043E86008701403FAC00413FAD001E
:1001F800423FAE00433FAF0038082F02031D0E29CF
:1002080037082E02031D0E2936082D02031D0E295C
:1002180035082C0203182D29390886008701403F2C
:10022800AC00413FAD00423FAE00433FAF002F0856
:100238003802031D29292E083702031D29292D08F4
:100248003602031D29292C08350203182D29B4016B
:10025800B40A3408AC003908083E860087012C0827
:1002680081003908083E860087010108080020003F
:10027800C9018231FB22813100302000BD000030ED
:10028800BC000130BB00F430BA008231D622813183
:100298008B170B17AF2921009012F701A001EA0173
:1002A800EA0A2000901221009016FF30AB292100A5
:1002B800A00177080319AA29823162228131F60048
:1002C80021002008A23E86008701760881000130BF
:1002D800F6007608A0075D292100A1010330AB29AB
:1002E800403078020318AF2901302100A002200A0B
:1002F800031988292108A10AA23E8600870101085E
:1003080082313E22813174292000C901742977087D
:100318000319AF2921002008770603199A297708BD
:10032800F6007608A000EA01EA0AAF2900302000AA
:10033800AB000030AA000030A9006430A800E23009
:10034800803153208131003A0319AF290230F60079
:1003580076082000C900640020004908003A031903
:100368004F29013A03195B29033A03197029013A05
:10037800031974298B29AF290030F5000030F400E7
:100388000030F3000030F2002000201CD32924089C
:10039800F2072508F33D2608F43D2708F53D01300E
:1003A800A435A50DA60DA70D890BD4290130A336B8
:1003B800A20CA10CA00C890BDB2923082204210420
:1003C8002004031DC8297508A3007408A200730837
:1003D800A1007208A000080020004708A0004808F3
:1003E800A100A201A3010830A035A10DA20DA30D03
:1003F800890BF8291708A0040830A035A10DA20D13
:10040800A30D890B012A1608A0040330A035A10DFD
:10041800A20DA30D890B0A2A2308F5002208F4006F
:100428002108F3002008F200080022008C01803027
:100438008D008E01373021008C0070308D00FF3028
:100448008E00CF3023008E0050308D0017308C0086
:10045800A03024008D008C018E0121009513250009
:100468008C018D018E010D303C00A40012303D003E
:100478009F000800F3007808031D442A64003F2AFF
:100488002100101A4B2A730823009A005F2A1012C1
:100498007308F2007908203E860001308700720850
:1004A80081000130F2007208F90740307902031820
:1004B800F9010130F802210010160800F30177084D
:1004C800031D682A6400632A20004A08A03E8600AB
:1004D800013087000108F2007208F3000130F200D1
:1004E8007208CA0740304A020318CA012100901254
:1004F8000130F7029016730808004030780203189C
:100508009C2A20004C08203E860001308700010804
:1005180023009A000130F00070082000CC0740301A
:100528004C020318CC010130F0007008F8070800ED
:1005380021001012080023009D1CA42A1D121D165C
:100548001908F00020004B08A03E86000130870003
:10055800700881000130F0007008CB0740304B0272
:100568000318CB010130F0007008F70708002100DC
:1005780090121012083023009F0090309D00243004
:100588009E0040309B0003309C00F9012000CC0104
:100598004030F2007208F800CB01CA01F7012100CF
:1005A800901608002000C601C60A20003D08AB00CE
:1005B8003C08AA003B08A9003A08A8003E30803150
:1005C80053208231003A031D08006400D92A200014
:1005D80010100130C7070030C83D203048020030F5
:1005E80003194702031C0800C701C801080082312B
:1005F80019228231833112238231833107238231D8
:100608008231BB2208002000990197019601101041
:1006180021001014F1302000980008003830210023
:10062800990098012200960121001A1B0800182B36
:0C063800640080010131890B1D2B00348F
:020000040001F9
:06000E007A3FFF3FEB0604
:00000001FF
