:08000000803102288731EA2F4C
:100E940016302100970008000534AA34F0340F34CA
:100EA40070302100990098011A1B0800562F8731D1
:100EB4006227873187315227873187314A270800D3
:100EC400220090018C018D018E01083021009000D8
:100ED400F8308C00FF308D00FF308E003F3023004F
:100EE4008D0038308C00083024009000FF308D00D5
:100EF4002100951322009D0108008731592787316D
:100F040020002708F9002608F8002508F70024081F
:100F1400F6002308FD002208FC002108FB0020083D
:100F2400FA0076308731B42787312930F5009630BE
:100F3400F4007F30890B9C2FF40B9C2FF50B9C2F16
:100F440000007A308731B42787312930F500963094
:100F5400F4007F30890BAC2FF40BAC2FF50BAC2FC6
:100F64000000822FF30022000C10F1010430710202
:100F74000318E72FF201083072020318DB2F220056
:100F84000C11730886008701811FCB2F22008C145B
:100F9400CD2F22008C100C157308860087010310D6
:100FA400810D0130F0007008F20708307202031C52
:100FB400C12F0130F0007008F3070130F000700811
:100FC400F10704307102031CBC2F22000C1408002A
:100FD40087314E278731A40087314F278731A500F9
:100FE400873150278731A60087315127A700A001F8
:0C0FF400A101A201A301200087317F2F82
:020000040001F9
:04000E00E4FFFFFF0D
:00000001FF
