:08000000803102288531AF2D8B
:100B5E002000B12D8D2785315C2685316030F70060
:100B6E000730F800F90121268531201423142614AC
:100B7E002914A014A31427142A14A114A414A7141E
:100B8E00AA1424142114A916A915A9142930200079
:100B9E00A1009630A0007F30890BD32DA00BD32D52
:100BAE00A10BD32D5C2685312000A201A3012308C1
:100BBE00F8002208F700F9012126853115302000B2
:100BCE00A1004B30A000BE30890BEB2DA00BEB2DFE
:100BDE00A10BEB2D00006F302000A2070318A30A13
:100BEE00083023023D3003192202031CDE2DFB3098
:100BFE00A2000330A30001302000A2020030A33B6C
:100C0E00220F0C2E230A0319B52D2308F8002208F3
:100C1E00F7000230F9002126853103302000A100B3
:100C2E000830A0007730890B1A2EA00B1A2EA10BBC
:100C3E001A2E022EFC01FC0A02307902031C3D2EF4
:100C4E000530790203183D2E7C087906031D3D2ED2
:100C5E000A308400883085000008FA00F8278531B4
:100C6E006D278531EF2785317A04432EF82785319C
:100C7E006D278531EF278531FB00F000F1017C08EF
:100C8E00742685310A30F000F1017808F3007708F8
:100C9E00F200B72785317108F8007008F7000530AB
:100CAE00FC0A7C0203180800232E0030F001F1012B
:100CBE00742685310130F001F10174268531023040
:100CCE00F001F101742685310330F001F101742633
:100CDE0085310430F001F101742EF400710803190E
:100CEE005E2FF0015E2F701C7F2E2F002017812E9D
:100CFE002F002013F036701C872E2F00A017892E80
:100D0E002F00A013F036701C8F2E2F00A617912ED9
:100D1E002F00A613F036701C972E2F002917992E30
:100D2E002F002913F036701C9F2E2F002617A12E90
:100D3E002F002613F036701CA72E2F002317A92E76
:100D4E002F002313F036701CAF2E2F00A3170800B0
:100D5E002F00A3130800701CB72E2F002016B92EDB
:100D6E002F002012F036701CBF2E2F00A016C12EA1
:100D7E002F00A012F036701CC72E2F00A616C92EFB
:100D8E002F00A612F036701CCF2E2F002916D12E52
:100D9E002F002912F036701CD72E2F002616D92EB2
:100DAE002F002612F036701CDF2E2F002316E12E98
:100DBE002F002312F036701CE72E2F00A316E92EFB
:100DCE002F00A312F036701CEF2E2F00A91608006C
:100DDE002F00A9120800701CF72E2F002015F92ED7
:100DEE002F002011F036701CFF2E2F00A015012FA2
:100DFE002F00A011F036701C072F2F00A615092FFB
:100E0E002F00A611F036701C0F2F2F002915112F51
:100E1E002F002911F036701C172F2F002615192FB1
:100E2E002F002611F036701C1F2F2F002315212F97
:100E3E002F002311F036701C272F2F00A315292FFA
:100E4E002F00A311F036701C2F2F2F00A9150800AC
:100E5E002F00A91108000130840088308500000899
:100E6E00F2007F307005F3007206031D412F2F0034
:100E7E00A614432F2F00A610F00DF001F00D701CDC
:100E8E004B2F2F00A91408002F00A91008002F00C7
:100E9E002010231026102910A010A31027102A109E
:100EAE00A110A410A710AA10241021100800740875
:100EBE00013A03197A2E033A0319B22E013A031995
:100ECE00F22E073A0319322F4E2F080070087104C4
:100EDE000319882FF401F40AF11B782FF035F10D68
:100EEE00722F71087302031D7E2F70087202031C8D
:100EFE00842F7008F2027108F33BF136F00CF40BFC
:100F0E00782F7308F1007208F00008009B278531D6
:100F1E0094278531EC278531DC2F70302100990024
:100F2E0098011A1B0800982F220090018C018D0148
:100F3E008E0108302100900001308C00CE308D00E3
:100F4E0033308E0023008D0101308C0008302400D8
:100F5E009000C0308D002100951322009D010800E5
:100F6E00F401F501700871040319D72FF601F60A82
:100F7E00F11BC42FF035F10DBE2FF435F50D7108B0
:100F8E007302031DCC2F70087202031CD32F70083E
:100F9E00F2027108F33B7414F136F00CF60BC42F09
:100FAE007508F1007408F00008002F0091130F303F
:100FBE009200A0309300950103309400FF3098000A
:100FCE0003309900CB3091000800163097000800CE
:100FDE007008003E840088300318013E850000082A
:100FEE0008000A30F000F1017808F3007708F200EB
:100FFE0008003F3406345B344F3466346D347D3430
:08100E0027347F346F34803475
:020000040001F9
:04000E00E4FFFFDF2D
:00000001FF
