:080000008031022887314A2FEC
:100E94000130F800F90020004F2FF601F701F401AA
:100EA400F501B927873189278731003A0319692F5A
:100EB4004030F6070318F70A0430770200300319AC
:100EC4007602031C672FF601F701F501F50A97274F
:100ED4008731003A0319722FFF30F406F501F50A41
:100EE40075080319552FF501740803197F2F250080
:100EF40013083F3940389300822FC03025009304F3
:100F04007708F1007608F000A4278731552F0030C8
:100F140020000D1B0130F00079060319003470081D
:100F2400F9007908031D0134003400308D1B0130B1
:100F3400F0007806031900347008F8007808031DDF
:100F4400013400347108F3007008F200F336F20C37
:100F5400F336F20C7208910070080339F200720E35
:100F6400F039F2001308CF39720493000800C9273E
:100F74008731C2278731E6278731E9278731F62F62
:100F840070302100990098011A1B0800C62F220016
:100F940090018C018D018E01083021009000FF30FA
:100FA4008C00E9308D00FB308E00293023008D0049
:100FB4003F308C00083024009000E9308D0021007F
:100FC400951322009D0108001630970008004E304A
:100FD400250093009501803094000F309600910114
:100FE4009201FC309E050800033020009C00FF3075
:0C0FF4009B009A019110FE2F1C150800B4
:020000040001F9
:04000E00E4FFFFFF0D
:00000001FF
