:080000008031022885313D2DFD
:100A7A000130C300C401FC01FD012000442D2426DD
:100A8A008531B52585310430F301F30AF400883045
:100A9A00F5000030F601762585314D26853171083D
:100AAA00C2007008C10042084406031D5E2D4108B9
:100ABA0043060319522D4208C4004108C3001330EB
:100ACA00A0008830A1004208A3004108A2003130EA
:100ADA005B2685313130F301F4000030F500013036
:100AEA004F2DF8000330F8050F30F3057808003E63
:100AFA00840088300318013E850000087307F90056
:100B0A007908FF2585318530890B892D0000760803
:100B1A000319972D9F2DFA278531AD258531F40AC2
:100B2A000319F50A74088400750885001200031970
:100B3A000800902DF9017608790203180800FA27AF
:100B4A008531AD258531F40A0319F50AF90AA02D74
:100B5A00F20022008E147208FF2522008E1008006F
:100B6A000230F300A030F2009230890BBA2DF20B5A
:100B7A00BA2DF30BBA2D003203300A268531F3253C
:100B8A0085313430F200F230890BC92DF20BC92DB0
:100B9A00F3258531A0300032890BD02DF32585311C
:100BAA0002300A268531F32585312830FF25853123
:100BBA000C30FF2585310630FF2585310130FF25B0
:100BCA0085310530F3000F30F200F130890BEB2D3F
:100BDA00F20BEB2DF30BEB2D0000080022000E1593
:100BEA000830890BF62D22000E118530890BFB2D5A
:100BFA0000000800F100710E0F390A268531F3252D
:100C0A00853171080A268531F32DF000700C220017
:100C1A00031C8E1103188E15F036700C031C0E126D
:100C2A0003180E16F036700C031C8E1203188E165B
:100C3A00F036700C031C0E1303180E170800322628
:100C4A0085312B268531C2278531B52F7030210099
:100C5A00990098011A1B08002F2E220090018C017E
:100C6A008D018E01083021009000FF308C008D002C
:100C7A0081308E003F3023008D008C000830240024
:100C8A009000FF308D002100951322009D0108007D
:100C9A0020001608F5001708F400F300F2017508A1
:100CAA00F2047308F1007208F0000800AF00223065
:100CBA00A800C727853130080319482F2530300688
:100CCA0003196A2EE62785315E2EAD01AE01AC010D
:100CDA00722E2C15A00A0319A10AE0278531303A91
:100CEA0003196E2E782EE02785314D278531031C96
:100CFA00A22EAD01AE010A30F000F1012E08F30078
:100D0A002D08F200A02785317108AE007008AD00E9
:100D1A00E0278531D03EA400FF3003180030A5003B
:100D2A002408AD072508AE3DA00A0319A10AE02749
:100D3A0085314D2785310318802EC7278531003A22
:100D4A000319482F643A0319AE2E0D3A0319AE2E31
:100D5A005E2E280886008701403FAA00413FAB006B
:100D6A00A80AA80AAB1FC02E0330AC04AA09AB0913
:100D7A00AA0A0319AB0AB001B00A3008D427853190
:100D8A00A600013FA7002B02031DCD2E26082A022A
:100D9A00031CD42E0530B00A3006031DC22E2D08BE
:100DAA002E040319E02E2C0803390319E02EFF3014
:100DBA00AD07031CAE033008A400A501A41BA503BC
:100DCA002508803AA6002E08803A2602031DEF2E37
:100DDA002D0824020318FB2E20003008A400A501C8
:100DEA00A41BA503AD022508AE3BFE2E2000AD01D3
:100DFA00AE012C1D122F2C0803390319062FED27DB
:100E0A0085312D082E040319272F2F08860030302C
:100E1A00F4278531031CAE03062F2D082E0403196F
:100E2A00212F2F0886002030F4278531031CAE03BA
:100E3A002D082E04031D162F2C0803390319272FFA
:100E4A00ED2785313008A900442F0A30F700F80150
:100E5A002908D4278531F000013FF1002B08F3005F
:100E6A002A08F2005B2785317108FA007008F90038
:100E7A00802785317708303EB000E6278531A903FF
:100E8A00290F2A2F5E2E2F0886008701810108006C
:100E9A00F1003A30F00171020318592F3030710213
:100EAA00031C592FF001F00A700C0800F401F50137
:100EBA007008710403197B2FF601F60AF11B682FDB
:100ECA00F035F10D622FF435F50D71087302031D2B
:100EDA00702F70087202031C772F7008F2027108D3
:100EEA00F33B7414F136F00CF60B682F7508F10019
:100EFA007408F00008007708780403199B2FFB0197
:100F0A00FB0AF81B8B2FF735F80D852F78087A0224
:100F1A00031D912F77087902031C972F7708F9028E
:100F2A007808FA3BF836F70CFB0B8B2F7A08F80097
:100F3A007908F7000800F401F501701CA82F72085F
:100F4A00F4077308F53DF235F30DF136F00C70082D
:100F5A007104031DA22F7508F1007408F00008003F
:100F6A008030200098009901970196011708FD002A
:100F7A00FC011608FC041110C52F16309700080052
:100F8A00181408002108A5002008A400A00A0319C3
:100F9A00A10A8400250885000008B0000800A40002
:100FAA001E30A501A435A50D240784008830253DEF
:100FBA008500003F080020088400210885000008F9
:100FCA0008002F088600870130088100AF0A080050
:100FDA002F0886002D3087018100AF0A080087019B
:100FEA008100FF30AF0AAD07080074088400750855
:100FFA008500000808008034C0349034D03431347D
:10100A0036342D34423469347434203443346F34E2
:10101A0075346E34743465347234003463346F3426
:10102A0075346E3474343D34253430343534643494
:10103A000034013400340A34003464340034E834AF
:06104A00033410342734CA
:020000040001F9
:04000E00E4FFFFFF0D
:00000001FF
