:08000000803102288731F22F44
:100D10001630210097000800FF3020009B009A0148
:100D2000911007309C0008000C3026009A009801B2
:100D300099013F3025009E0508000C3026009E00DA
:100D40009C019D01FC3025009F05080070302100AA
:100D5000990098012200960121001A1B0800AC2E70
:100D6000F301F401F501750C2200031C8D1003182A
:100D70008D140030F600F7008631F2260800F001ED
:100D8000F101F201720C2200031C8C1203188C1664
:100D90000030F600F70087310927080000302000F6
:100DA0000E180130A00000308E180130A200003073
:100DB0000E190130A10000308E190130A300080087
:100DC00087313A2786318631A626863186318826B4
:100DD000863186319426863186319D26863186314C
:100DE0008C2608007708F9007608F800F936F80C28
:100DF000F936F80C78082600980076080339F800D0
:100E00000430F835890B012F1A08CF3978049A007D
:100E100008007708F9007608F800F936F80CF9367A
:100E2000F80C780826009C0076080339F800043096
:100E3000F835890B182F1E08CF3978049E0008005A
:100E4000F8007808F7007708F9007608860087012F
:100E5000010879060319382F7908F700760886000B
:100E60008701770881007908031D382F01300800B9
:100E700000300800220090018C018D018E010830A5
:100E800021009000CF308C00FC308D00FF308E00B0
:100E90003E3023008D002F308C00240090013C3028
:100EA0008D002100951722009D0108008631E02663
:100EB00087318631B02687318631BF26873186312A
:100EC000CE26873164002030FA007A08F600200030
:100ED0000E080139873120278731003A0319842F02
:100EE000FF30F3070030F43D043074020030031982
:100EF0007302031C7D2FF301F4017408F7007308DB
:100F0000F6008631F22687312230FA007A08F600A0
:100F100020000E0C0139873120278731003A031950
:100F2000A82F0030F600F7008631F22687317509C8
:100F3000FA007A08F500750C2200031C8D100318C6
:100F40008D147408F7007308F6008631F226873195
:100F50002130FA007A08F60020000E0C890C0139C5
:100F6000873120278731003A0319CA2FFF30F00755
:100F70000030F13D04307102003003197002031C8F
:100F8000C32FF001F1017108F7007008F6008731F6
:100F9000092787312330FA007A08F60020000E0C6A
:100FA000FB00FB0C7B0C0139873120278731003A8D
:100FB0000319622F0030F600F700873109278731C7
:100FC0007209FA007A08F200720C2200031C8C12DB
:100FD00003188C167108F7007008F600873109278E
:100FE0008731622FF001F101F201F301F401F50103
:100FF0002000A001A101A201A30120008731562FEA
:020000040001F9
:04000E00FCFFFFFFF5
:00000001FF
